S01400005A33537769746368536F635F322E7333372B
S31500000000A01A00209907020069C800006DC8000008
S31500000010A70A02020002000004180FAC5065B001E6
S3150000002000000000000000000000000000000000CA
S3150000003000000000B8E5030000000000000000001A
S315000000400000000000000000FFFFFFFFFFFFFFFFB2
S31500000050FFFFFFFFFFFFFFFFFFFFFFFFFFFFFFFFAA
S3150000006000E00F000000000000001000FFFFFFFF8F
S31500000070FFFFFFFF1C000000000000000000000062
S31500000080886D00208861002088610020886100203A
S31500000090A01A0020E02F0400F47C03004011002089
S311000000A01011002000001000886D0020E8
S31500000200A01A00209907020069C800006DC8000006
S3150000021075C8000071C8000079C800009507020083
S315000002209507020095070200950702009507020050
S315000002307DC8000095070200950702009507020099
S3150000024071E200001DF3010069CB0000F0C8000058
S31500000250E1ED010089F3010029F3010041F30100FA
S3150000026021F30100A5D9000079DA000095F8000015
S3150000027079630100F0C80000F0C8000029A300005F
S31500000280F0C80000F0C800009DDA0000C16300005D
S31500000290F0C80000F0C80000F0C80000F0C8000078
S315000002A0F0C80000F0C80000F0C80000F0C8000068
S315000002B08DF3010025F30100F5DF0000CDF3010009
S315000002C0F0C80000F5AE0100F0C80000F0C800005C
S315000002D0F0C80000F0C80000F0C80000F0C8000038
S315000002E0F0C80000F0C80000F0C800003D0600009D
S315000002F05D060000F0C80000F0C80000F0C800006D
S31100000300F0C80000F0C8000095070200DD
S3150000030CF8B500BFF8BC08BC9E467047F8B500BFF0
S3150000031CF8BC08BC9E46704710B5054C237833B91B
S3150000032C044B13B10448AFF300800123237010BDB6
S3150000033C48230020000000003027040008B5034BBA
S3150000034C1BB103490348AFF3008008BD0000000051
S3150000035C4C23002030270400154B002B08BF134BF1
S3150000036C9D46A3F5803A00218B460F461348144A46
S3150000037C121A35F04AF90F4B002B00D098470E4B4A
S3150000038C002B00D098470020002104000D000D48DA
S3150000039C002802D00C48AFF3008035F0D3F82000CB
S315000003AC290016F083FA35F0B9F800BF00000800F2
S315000003BCA01A0020000000000000000048230020C6
S315000003CC8861002000000000000000002DE9F047C5
S315000003DCDFF83C9006460C461F464D1E01F10708F9
S315000003EC15F8012F4946012006F096FD4545F7D133
S315000003FC054B06491E803246089723460120BDE868
S3150000040CF04706F089BD00BF9A4B0020B982030065
S3150000041CA982030070B5184C0023237001F092F9E1
S3150000042C054601F08FF9022813D02A4613490120FC
S3150000043C06F072FD0F2114230322012012F0AAFFED
S3150000044C13F000F9204641F28831BDE8704027F0E0
S3150000045CABBC01F073F9064601F074F90849054680
S3150000046C204627F0A1FC33462A4606490120BDE862
S3150000047C704006F051BD00BFD04D00202383030011
S3150000048CA08601006083030070B500238CB00422A3
S3150000049C0821032010F098FB0123042209210320D4
S315000004AC10F092FB2C4B4FF480721A604FF40072D2
S315000004BC1A602A4B01AA03F11006154618685968EA
S315000004CC144603C40833B3422246F7D12846244DBA
S315000004DC10F0A4FA05F02CFF0FCD05AC0FC495E86F
S315000004EC07004FF4165384E8070001211D480793B3
S315000004FC0FF02AFB01211C481C4C0FF025FB012296
S3150000050C10460023072110F05FFB01231846042236
S3150000051C062110F059FB05A9204610F057FE636F13
S3150000052C134843F003036367A36F23F4F85323F0D4
S3150000053C1F0343F4206343F00A03A367E36C43F001
S3150000054C0403E3640B4B4FF400625A6042F21071E1
S3150000055C27F02AFC0CB070BD9CA00046387F030027
S3150000056C487F030000350A0000720400000C0140AD
S3150000057CD04D002000E100E02DE9F0410C46064686
S3150000058C17460D49DFF834800246012006F0C4FCFC
S3150000059C25462B1B9F4208DC304600233A46214653
S315000005AC05F0E2F90120BDE8F08115F8012B414672
S315000005BC012006F0B1FCECE706820300FBD3030036
S315000005CC07B50B46009204490246012006F0A4FC2E
S315000005DC03B05DF804FB00BF078003002DE9F04172
S315000005EC0C46064617460D49DFF8348002460120B4
S315000005FC06F092FC25462B1B9F4208DC3046022354
S3150000060C3A46214605F0B0F90120BDE8F08115F80F
S3150000061C012B4146012006F07FFCECE73F820300EC
S3150000062CFBD303000149012006F076BC7E82030051
S3150000063C064808B5036C836410F000FE05F0F0FE66
S3150000064C18B9BDE8084005F0CFBE08BD000C014046
S3150000065C014B1A6C9A647047000C014010B5174A8E
S3150000066C137801331370164B00221A7001F06AF8D6
S3150000067C022816D1134B1B78062B0AD1124C208854
S3150000068C05F0B8FB228811490120BDE8104006F0A0
S3150000069C43BC0F49012006F03FFCBDE8104012F0A8
S315000006ACD1BF12F0CFFF0B49012006F035FC0A48EA
S315000006BC27F06EFB094B01221A7010BD6523002032
S315000006CC104E0020662300209A4B0020647F030006
S315000006DC827F03008F860300184E002064230020BF
S315000006EC10B50B4C002323700A4B1B7853B101F049
S315000006FC29F802280AD020464FF47A61BDE810404A
S3150000070C27F052BBBDE8104001F01CB810BD00BF6D
S3150000071C184E00206423002010B5074B0022012040
S3150000072C1A7011F04BF8054A05490346BDE810400E
S3150000073C012006F0F1BB00BF9C4B0020E2A3030096
S3150000074C02830300912808B504D100200CF0FAF8B6
S3150000075C002008BD9028FBD100200CF0E1F8F7E74B
S3150000076C21B9034B1870034827F012BB704700BF22
S3150000077C66230020104E002013B50B4B0090044648
S3150000078C0A4A0B49012006F0C7FB24B1094B00228B
S3150000079C1A7002B010BD084840F6B83102B0BDE878
S315000007AC104027F001BB00BF9AED0300B681030091
S315000007BCBB810300642300209C4B002007B500235B
S315000007CC0093074A074B0849012006F0A5FB07488A
S315000007DC40F6B83103B05DF804EB27F0E5BA00BF7C
S315000007ECFC8103009AED0300BB8103009C4B0020A7
S315000007FC07B501200090054B054A064906F08CFB0F
S3150000080C054B00221A7003B05DF804FB9AED030049
S3150000081CFC810300BB8103006423002008B5054A54
S3150000082C05490346012006F077FB044B00221A709B
S3150000083C08BD00BF9AED0300028303006423002069
S3150000084C70B592B005462DF031FE334B18802DF065
S3150000085C2DFE95F8EE3000932A4603462F490120CB
S3150000086C06F05AFB95F8621095F834302A890191F6
S3150000087CE98E009101202A4906F04EFB2DF016FE5A
S3150000088C09AC242208904FF48033002120460793AC
S3150000089C34F0BBFE07AB93E8030004F059FC214986
S315000008AC0D90012006F038FB1F4834F0A9FF0F907D
S315000008BC1E4834F0A5FF95F8EE300A9028468DF8C0
S315000008CC253004F011FD1A490B90012006F024FB8B
S315000008DC184804F049FD0DAE0C901749012006F09E
S315000008EC1BFB0FCE6D460FC533682B6094E80F00CB
S315000008FC04F088FD05460DAE05F07AFE284634F068
S3150000090C5FFE0FCE6D460FC533682B6094E80F0063
S3150000091C04F0EAFD12B070BD9A4B00205D80030016
S3150000092CCF8003000A810300528103005D8103001E
S3150000093C68810300544D00207781030008B50349F4
S3150000094C012006F0E9FA012008BD00BF8C810300E6
S3150000095C0149012006F0E0BA947F03000149012009
S3150000096C06F0DABACF81030008B50349012006F078
S3150000097CD3FA012008BD00BFCE7F030008B5064997
S3150000098C012006F0C9FA04F0A5FA044B93E8070017
S3150000099C04F0A6FA012008BDEC7F03005C4B002096
S315000009AC08B5022004F090FF044B00221A700220B6
S315000009BC11F082FEBDE8084004F075BF304E0020F1
S315000009CC08B5002004F068FF044B00221A7015F0DD
S315000009DC7FF8BDE8084004F066BF00BF284E002033
S315000009EC08B5012004F070FF044B00221A70012098
S315000009FC11F062FEBDE8084004F055BF384E0020E9
S31500000A0C08B5012004F060FF044B00221A70012087
S31500000A1C13F080FEBDE8084004F045BF204E0020D0
S31500000A2C08B5012027F0E0FA024827F053FA024BEA
S31500000A3C187008BD90830300404E002008B504F0E2
S31500000A4CD3F9012805D0034B1878BDE8084027F0E8
S31500000A5C25BA08BD404E002010B50C1E03D127F058
S31500000A6C97F9002010BD02DB27F09EF9F9E702206A
S31500000A7CF8E7B1F5000F02D20902FFF7EDBF02202D
S31500000A8C704700002DE9F0419846154B154F1B8811
S31500000A9C00264FF00C0CF4B29C4202D30220BDE8A7
S31500000AACF0810CFB04F57C197D5D854205D16588CA
S31500000ABC8D4202D12579954201D00136EBE701F042
S31500000ACC7DFB0028EAD04146A068FFF7C5FF002849
S31500000ADCE4D19DF8183063719DF81C30A371DEE7E4
S31500000AECCC1A0020A81A002013B59DF81040CDE9A9
S31500000AFC003413460022FFF7C5FF02B010BD07B540
S31500000B0C00230093FFF7F0FF03B05DF804FB000031
S31500000B1C0E4BF0B51F880E4E00254FF00C0CEBB2A9
S31500000B2CBB4201D30220F0BD0CFB03F3F418F35CBB
S31500000B3C834205D163888B4202D12379934201D03B
S31500000B4C0135ECE7A36800201870ECE7CC1A0020FE
S31500000B5CA81A00200022FFF7DBBF00002DE9F04F9A
S31500000B6C1D4699B0FF23022D074688461446229E41
S31500000B7C9DF88CA08DF81A3040F2D38033785A0742
S31500000B8C2DD5042D40F2CD8096F804B0694A002389
S31500000B9C02EBC3015FFA83F90979FF2908D0013307
S31500000BAC0A2BF5D1269B002B40F0BF804FF0FF0996
S31500000BBC00230CAA0DF11B0120798DF81B3002F0D5
S31500000BCCC0FF78B1BDF8583023809DF81B0004F0A7
S31500000BDC63FE8DF81900C8B119B0BDE8F08F96F810
S31500000BEC02B0D3E7207901F005FBFF28059000F051
S31500000BFC9A80207904F068FE8DF819000028EBD154
S31500000C0C059B4D4800EB031043882380618823889D
S31500000C1C4FF6FF72002F08BF4246CDE90012584628
S31500000C2C5246002107F0A6FD18B1E38843F02003D5
S31500000C3CE380269B09960DF1190107A8CDE9073427
S31500000C4CADF82880ADF82A508DF82C708DF82DA0B3
S31500000C5C02F0AEFF10B19DF81900BDE7304607F063
S31500000C6CA7FCA01D07F092FC22464146384607F029
S31500000C7CA3FE80B2A8422ED39DF894300393BDF800
S31500000C8C903002930DF11A03CDE900632246EBB2C4
S31500000C9C4146384600F0EAFE8DF81900269A9DF872
S31500000CAC193092B3002B42D19DF81A20FF2A09D095
S31500000CBCB9F1090F06D81F4B03EBC9010A71269A25
S31500000CCC43F839209DF8193013B9112002F013FF9F
S31500000CDC04F0E9FDBFE7BAF1000F12D10DF11A03CA
S31500000CECCDE90053224633464146384611F0D0F939
S31500000CFC2B468DF81900114A1149022006F00CF901
S31500000D0CCCE774238DF81930C8E7BA2BDAD1E3880F
S31500000D1CDB06D7D5002301208DF8193004F06AF8CC
S31500000D2CD0E7012058E7A32056E7B42054E7BA2BA6
S31500000D3CEDD0CDE768230020044F0020788B03000C
S31500000D4C878B03000023054A10B51946FF24D018DB
S31500000D5C047199500833502BF9D110BD682300202B
S31500000D6C10B586B00881089C04940024CDE9024491
S31500000D7C0124CDE9003413460A4601460320FFF749
S31500000D8CEDFE06B010BD13B500240094FFF7E8FF86
S31500000D9C02B010BD2DE9FF410F469046054688B3BB
S31500000DAC81B37AB300266946F0B21FF0D7FA04462F
S31500000DBC30B99DF80030032B06D001360A2EF2D13D
S31500000DCC204604B0BDE8F0819DF801202B799A42AB
S31500000DDCF3D1BDF802206B889A42EED19DF806300D
S31500000DEC9DF8050000EB032080B29DF804306B7172
S31500000DFC288143463A462946FFF7C5FF0028DCD032
S31500000E0C0446DDE70224DBE710B586B0089C0494A3
S31500000E1C0024CDE902440124CDE9003413460A46E8
S31500000E2C01460620FFF79AFE06B010BD13B5002446
S31500000E3C0094FFF7E9FF02B010BDF0B502288BB0A5
S31500000E4C05460E4614461F460AD106A9F0B21FF0F7
S31500000E5C85FA98B99DF8193023719DF81C30637189
S31500000E6C119B04930022109B0192CDE90222009360
S31500000E7C22463B4631462846FFF770FE0BB0F0BDC6
S31500000E8C13B500240194049C0094FFF7D6FF02B01E
S31500000E9C10BDF0B587B0074614460E461622002143
S31500000EAC68461D4604F00AFCADF80C70ADF80A4015
S31500000EBCF6B1082231460DF1010004F0A3FBBDF892
S31500000ECC143043F00203ADF8143000238DF80030D3
S31500000EDCBDF83430ADF80E300F9ABDF83030BDF891
S31500000EEC3810ADF81030684611F03AFF07B0F0BD77
S31500000EFC1DB1ADF812500C23E8E74FF6FB739C427C
S31500000F0C8CBF082400248DF80040E1E707B5094A98
S31500000F1C0346108831B9084A084903B05DF804EB5A
S31500000F2C06F016B80091064A064906F011F803B009
S31500000F3C5DF804FB6C28002092CA0300328903007A
S31500000F4C36CB0300398903007FB505460E4628F0DB
S31500000F5C1FFB2A46044603460C49042005F0DCFF19
S31500000F6C8CB986B101238DF80E30032300932246EB
S31500000F7C03AB36214FF6FC708DF80C408DF80D50F6
S31500000F8C09F07EF90446204604B070BD1B890300A7
S31500000F9CFF2810B50C4604D10420044905F0BCFF0B
S31500000FACFE202146BDE81040FFF7CEBFF48A0300B1
S31500000FBCF8B51F460B8806460D461446002B69D11C
S31500000FCC4A88110448BF63783349082005F0A4FF0A
S31500000FDC6B8848F20402934238D00FD848F20102CB
S31500000FEC934244D048F20202934248D0132B0ED1BE
S31500000FFCA2786378294903EB022229E048F206021B
S3150000100C934229D038D348F2200293422CD03B4647
S3150000101C22462946304600F0C0FE70B93B462246B1
S3150000102C2946304614F02EFD6A8848F221039A426E
S3150000103C03D16178304602F08BFD6B88B3F5004F17
S3150000104C02D9082002F0C3FD012024E0144A1549F8
S3150000105C082005F061FFDAE7134A1249082005F06B
S3150000106C77FF22791149F3E762781149F0E71149C4
S3150000107C082005F051FFCAE722790F49E8E70F4A25
S3150000108C0849082005F064FFA27863780C4903EB45
S3150000109C0222DDE70020F8BD46890300BC89030067
S315000010AC6B89030072890300838903008989030015
S315000010BC97890300D3890300ED8903000F8A030087
S315000010CC148A03002DE9F04188B006460C4690467A
S315000010DC1F462DF0EBF90EAB0546009302460FABFF
S315000010EC2146304611F076F838B1264A26490220B8
S315000010FC05F012FF08B0BDE8F0816188BDF8382014
S3150000110C238800910220214905F006FF0F9B0493CA
S3150000111CBDF83830ADF814308DF808600394ADF88E
S3150000112C16508DF818808DF8197000F00DFB8DF89F
S3150000113C1A0000F00BFB8DF81B0021F030FF8DF828
S3150000114C1C0002A802F032FD0028D3D1BDF83830BD
S3150000115C0F9A2146284606F0D5FD0028CAD1BDF8BF
S3150000116C38300F9A21462846FFF722FF0028C1D1B6
S3150000117CCDE90050BDF838300F9A3146204607F0BD
S3150000118C1FFBB7E7788B03003E88030054880300E7
S3150000119C2DE9F04F85B0804689461446BDF8386077
S315000011AC0F9D9DF840B01F46002B2CD0474A48494E
S315000011BC042005F0CDFE2388002B78D040F20912CE
S315000011CC934276D0434A4449B3F5827F18BF0A4608
S315000011DC6188009101964149042005F0B9FE2388E7
S315000011EC6BB1022E0BD92B783D493E4A13F0010FF9
S315000011FC18BF0A46AB783C49042005F0A9FE3B49CA
S3150000120C042005F089FE3A4A0023114602EBC3007E
S3150000121C007958454FD152F833A0002301EBC30295
S3150000122C107958454DD1FF201071002241F833201A
S3150000123C47B9238833B9B4F90230002B02DB0820F6
S3150000124C02F059FC012002F0C2FC9DB12878C307BC
S3150000125C10D510F0040004D032460121284604F0C3
S3150000126CDCFACDE9017000953346224649464046E4
S3150000127C01F0A2F9BAF1000F06D0CDE900573346BA
S3150000128C224649464046D0473B46224649464046BA
S3150000129CCDE9006509F0FEF933462246494640463B
S315000012ACCDE90E5705B0BDE8F04FFFF767BB114A05
S315000012BC8EE7114A8CE701330A2BA7D14FF0000AAF
S315000012CCABE701330A2BA9D1B2E700BFA088030014
S315000012DCA88803008E880300F5880300B2880300F3
S315000012EC9188030099880300E188030053AC03003E
S315000012FC68230020878803008B8803002DE9F047BC
S3150000130C9DF824709DF828A0BDF8208099460446C7
S3150000131C0D4616460849094A022005F0FDFDCDE9A1
S3150000132C099ACDF820803B46324629462046BDE830
S3150000133CF047FFF72DBF00BF37880300788B0300FB
S3150000134C962813B504463BD034D8912843D094281C
S3150000135C36D0902848D100F0F1F9274B0090274A57
S3150000136C2749042005F0D8FDBC2C2FD12549042093
S3150000137C05F0D2FD02F024FC02F023FC02F021FC65
S3150000138C204612F065FB204616F016FB204609F0A7
S3150000139C05FA204612F0B0F8204612F0C5FF20469A
S315000013ACFFF7D0F930B31849042002B0BDE810405D
S315000013BC05F0B2BDAF2807D8AB280AD2982813D1AE
S315000013CC124B0E4A124909E0BC28C3E72FF098FBD2
S315000013DCD4E79128F4D1084B084A0E49042005F0AD
S315000013EC9BFD07F014F8CBE722460B49022005F0CB
S315000013FC93FDC5E702B010BD258A03002E8A0300B3
S3150000140C358A0300428A0300928A0300698A030024
S3150000141C718A0300608A03007A8A030013B50F4CA5
S3150000142C002004F039FA23686BB101A800F084FBA4
S3150000143C48B923681A789DF804309A4203D0012AD9
S3150000144C07D1022B05D1032301A8ADF8043029F0EE
S3150000145C21F804F028FA02B010BD00BF5C2400206D
S3150000146C10B5044604F01DFA204612F07DFBBDE8CB
S3150000147C104004F018BA00000B4B1B6813B5044659
S3150000148C7BB1187801280CD122890092E37A074A9D
S3150000149C074905F041FD204602B0BDE8104028F092
S315000014AC67BE702002B010BD5C240020C28A030007
S315000014BCC78A03000D4B1B6837B505469BB11C78D4
S315000014CC0289C37A0A490092012C0A4A4FF001009C
S315000014DC08BF022405F020FD2946204603B0BDE8CE
S315000014EC304028F073BF702003B030BD5C24002060
S315000014FCC78A0300B681030010B5044600F016F93E
S3150000150C631E04F10F02002113F8010FFF2808BF18
S3150000151C19709342F8D10023237410BD7FB504AB28
S3150000152C03E9030000239DF80D509DF80E60164943
S3150000153C1C46D8B201EBC0025268EAB99DF80C10F1
S3150000154C00919DF80B309DF80A201049042005F0F7
S3150000155CFFFC25B12A460E49042005F0F9FC0D4A7C
S3150000156CBDF808300C49002C18BF2246042004B0E4
S3150000157CBDE8704005F0D0BC11F830000133B04224
S3150000158C08BF1446D5E700BF308B0300F88803006C
S3150000159C09890300F48803000D890300FFF7E0B8FE
S315000015AC10B50EF068FE012300224FF4E131202025
S315000015BC14F058FC0AF04AFF04460BF03BFC22469A
S315000015CC03461249012005F0A7FC0AF045FF044624
S315000015DC0BF03EFC224603460D49012005F09CFC0F
S315000015EC0AF034FF012303FA00F040F2A17318420B
S315000015FC0BD0084C20780AF035FF20780AF0EEFF65
S3150000160C2078BDE810400BF0EFB810BD3D8C030000
S3150000161C538C03005D1B002037B50022114601A830
S3150000162C02F091FA00286AD126F084F903460028C4
S3150000163C60D03449344A012005F06EFCAD213348A4
S3150000164C0AF0EAFC04F01EF9FFF77CFB00F0E0FB65
S3150000165C00F08AFB0221084605F0CEFFFFF7DEFEFE
S3150000166C02F02AFE2A4B2B4C2B4D41F202021A8019
S3150000167C2A4AFF2313802A4A4FF40040138022F093
S3150000168CB1FA012127480EF05FFA00230422092142
S3150000169C02200FF099FA00230422062101200FF0F4
S315000016AC93FA04F0A7FE04F099FE04F091FE28B11B
S315000016BC04F020FF04F09EFE04F090FE0BF088FA76
S315000016CC26F0E2F903F090FB012801D000F055FB5F
S315000016DC14F01EFCFFF7B2F92021002003F01EF8CF
S315000016EC28B1224629464FF6FF7005F031FC04F06E
S315000016FCDCF8DAE70C49022005F00EFCA2E70198AB
S3150000170C03B030BDFF8B0300A0880300108C0300D0
S3150000171C6A2100202B8C0300398C03006C210020DD
S3150000172C6E21002000350A00218C0300024910238B
S3150000173C7F2209880BF092B92CE1030026F0BEBA81
S3150000174C26F0C8BA26F038B82DF0DAB91FB56846B7
S3150000175C2CF0BAFEC8B902A92EF0DEFE08226946A4
S3150000176C0DEB020003F0B1FF10B9002004B010BD60
S3150000177C02A901202EF0D0FE082269460DEB0200CC
S3150000178C03F0A3FF90B90120F0E72CF08FFE4FF683
S3150000179CFF739842044609D000202EF0D5FE8442F1
S315000017ACE3D001202EF0D0FE8442ECD0FF20DDE702
S315000017BC38B5054604F088F8044698B94FF4A0539A
S315000017CC2A460949082005F0A7FB4FF4A0512846E4
S315000017DC08F0C8FC054902460446082005F09CFBA7
S315000017EC04F061F8204638BD738C03007F8C03002F
S315000017FC7FB5054604F055F826F060FA40B16B88C3
S3150000180CB3F5006F04D1681D02F0A0F9044616E08A
S3150000181C284602F0DAF9D8B90446E6B269463046EB
S3150000182C1EF09CFD80B99DF800306BB929463046F8
S3150000183C1EF016FE0028E9D075280BD08C2404F077
S3150000184C32F8204604B070BD01340A2CE5D1F5E718
S3150000185C8D24F4E78B24F2E738B5054604F021F81D
S3150000186C284602F0B0F998B928461EF0C7FD68B1B3
S3150000187C75280CBF8B24882423462A460549082044
S3150000188C05F04AFB04F00FF8204638BD0446F3E792
S3150000189C8D24F7E7898C030037B502A9FF2301F8DD
S315000018AC013D044602F049F918B19DF8070003B052
S315000018BC30BD094B03EB04131D7B21F072FB8542F3
S315000018CC01D0FF20F3E7204600F0EAFA0028F8D012
S315000018DC204600F051FDEAE7044F00202DE9F041C7
S315000018EC07460D4602F02BF90646F0B9384600F0CD
S315000018FC81FCFF2819D00E4C04EB001494F80C80D4
S3150000190C21F04FFB804510D163882B80A3886B8018
S3150000191CA3792B710121384600F034FD31466871EC
S3150000192C384600F02FFD0126A8713046BDE8F0813F
S3150000193C044F0020F8B504460E46154600F05AFC36
S3150000194CFF2802D14FF6FF70F8BD0B4B03EB0010CE
S3150000195C077B21F026FB8742F4D146B901222946A2
S3150000196C204600F035FD0028ECD00088ECE7012E6F
S3150000197CE8D10022F3E700BF044F002010B504465F
S3150000198C03F08FFF2046FFF7DBFCBDE8104003F0A9
S3150000199C8ABF000037B50C4B1B681C5C94420D4685
S315000019AC0AD900922346094A0949042005F0B4FADB
S315000019BC0024204603B030BD002201460092234687
S315000019CC284626F043FDF4E7DC1B0020A088030024
S315000019DCD38B0300F0B599B0144603AD0F460646FB
S315000019EC03F05FFF204652222946FFF7D3FF84B24D
S315000019FC8CB10DF10A002CF049FD0DF10B002CF009
S31500001A0C4DFD9DF90B309DF80A20CDE90045394670
S31500001A1C3046FFF757FB03F046FF19B0F0BD2DE932
S31500001A2CF0439BB014469DF88850894680461F4665
S31500001A3C03F037FF2946204610F088FB80B905AE27
S31500001A4C522231463846FFF7A5FF48B180B20090C6
S31500001A5CCDE901672B46224649464046FFF798FBDF
S31500001A6C03F021FF1BB0BDE8F08300002DE9F7431E
S31500001A7C1C4607460E4601202649BDF830809DF8C7
S31500001A8C349015461A4605F047FA21460A9826F070
S31500001A9C05FDFF2804463AD00B9B1870062F34D848
S31500001AACDFE807F0040404121929220003462A462B
S31500001ABC314638462CF060FF0546204626F092FB50
S31500001ACC284603B0BDE8F0830C220346114628468F
S31500001ADC2CF024FFF0E7EA7A0346CDE9008911469B
S31500001AEC28462CF0DDFEE7E703460C222946304655
S31500001AFC2CF07CFEE0E70190EB7A00934A462B46ED
S31500001B0C314640462CF096FED6E70225D5E7182539
S31500001B1CD6E700BFEB8B03000822014903F072BD28
S31500001B2C6D60002010B50446084625F059FE204687
S31500001B3CBDE8104027F0AABE27F0A8BE05207047C6
S31500001B4C062070470A20704709F03AB808F0AABF79
S31500001B5C08F0A2BF014B1878704700BFF41B002099
S31500001B6C4B207047024B18685968FFF7D7BC00BF6B
S31500001B7C0223040013B5044603F093FE0DF1060090
S31500001B8C2CF084FC0DF107002CF088FC9DF9072045
S31500001B9C9DF8061020460FF031FF30B99DF907204D
S31500001BAC9DF80610204614F0B5F803F07CFE02B042
S31500001BBC10BD38B504460D4603F073FE2946204683
S31500001BCC10F002F918B92946204614F0B3F8BDE80E
S31500001BDC384003F068BE38B504460D4603F061FE86
S31500001BEC294620460FF074FF18B92946204614F0F2
S31500001BFC7FF8BDE8384003F056BE38B504460D46AE
S31500001C0C03F04FFE294620460FF098FF18B92946D7
S31500001C1C204611F0FDFFBDE8384003F044BE704786
S31500001C2C00F0D0B810B5044C22780AB118F05EF862
S31500001C3C0123237010BD00BF5E1B002000207047DF
S31500001C4C014B187000207047B82300202DE9F34192
S31500001C5C224B01931646044640B13AB1002301AA21
S31500001C6C9D5C8D4233D00133042BF9D1022002B096
S31500001C7CBDE8F081E35C93FAA3F30146180E03F07A
S31500001C8CA5F8434603F10108DBB2BB42F2DBC2B254
S31500001C9C92FAA2F2C0F30F2393FAA3F3100E1B0EC3
S31500001CAC03EB00236219DB439BB212F8020CD9B288
S31500001CBC884211D112F8012CB2EB132F0CD13246FB
S31500001CCC2146284602B0BDE8F04120F0A5BC002311
S31500001CDC4FF6FF708F1ED5E7BD20C8E7080A0E1217
S31500001CEC2DE9F0411D4686B01E4B1646074603A845
S31500001CFC88461C781EF0C0FE16F0FD0F2FD030B9AA
S31500001D0CBDF80C30990702D5032E08BF03243346C1
S31500001D1C2A46414638460094FEF758FB33462A4677
S31500001D2C41463846009413F005FFFFF707FD854240
S31500001D3C03D02946384608F071FE022C0BD0FFF76B
S31500001D4CFDFCA84207D0B21E53425341294600223D
S31500001D5C384608F0ADFE204606B0BDE8F0810324F7
S31500001D6CD5E700BFB823002008B5FEF78DFB06F0BB
S31500001D7C13FBBDE8084011F0BDBB08B501F0E5FE4C
S31500001D8C06F044FB10F040FC10F038FDBDE80840AE
S31500001D9C12F0C2BC704701F007BFF8B504460D46F9
S31500001DAC16461F4601F006FF40B93B463246294609
S31500001DBC204609F0F1FD00F00100F8BD0120FAE71C
S31500001DCC0020704738B504460D4601F005FF29463C
S31500001DDC204611F0ABFB29462046BDE8384014F0EE
S31500001DEC97BDFEF7C9BBFEF7F9BB000010B5074A55
S31500001DFC0123332B194601D1002006E00233D418F7
S31500001E0C14F8034C8442F4D1505C10BD9F8C030033
S31500001E1CF0B587B040F20123194A1A49ADF80030E3
S31500001E2C194B1A4D0220CDE9042308700023012218
S31500001E3C1749ADF80430ADF80820ADF80C300DF1AB
S31500001E4C100E0DF1140C01AF02AE03AC10461DF8CA
S31500001E5C03200A703EF813204A803CF813208A802F
S31500001E6CDA5D8A71F25C487305EBC2028A601A5D10
S31500001E7C0A7310310BB107B0F0BD0123E7E700BFC1
S31500001E8C04010401B923002004011008C8900300C2
S31500001E9C044F0020014B1878704700BFB92300206F
S31500001EAC034B03EB0010407B00F00100704700BFB2
S31500001EBC044F0020413803288CBF002001207047B6
S31500001ECC413801288CBF0020012070474338012877
S31500001EDC8CBF00200120704700207047064BC01AAB
S31500001EEC064B801043430F3B9BB2022B41F2A200E0
S31500001EFC28BF0020704700BF508E0300CDCCCCCC41
S31500001F0C0388B3F57C4F01D3FFF7E8BF0846FFF70C
S31500001F1CE3BF10B54A880488A2420DD1037B0C7925
S31500001F2C234009D0B2F57C4F08D3FFF7D7FF0B89B6
S31500001F3C1B1A5842584110BD0020FCE70120FAE755
S31500001F4C38B50D88D488A5420AD10388B3F57C4FE1
S31500001F5C08D2FFF7D5FF13891B1A5842584138BDD2
S31500001F6C0020FCE70120FAE72DE9F04F8BB04FF08B
S31500001F7C000A01939DF850300593714BDFF8D09110
S31500001F8C1B7804918046154608935746089A5FFAC3
S31500001F9C8AF39A4201D8862063E099F800300293BE
S31500001FACD9F808300393029A98F80030934240F01F
S31500001FBCBF8099F80D30D80709D5039B1B79079379
S31500001FCC4FF0000B079A5FFA8BF39A4204D80AF18A
S31500001FDC010A09F11009D9E7039B1E68142303FBB8
S31500001FEC0B6641463046FFF794FF002800F09C80B4
S31500001FFC33890693002306999AB2914202D80BF1C3
S3150000200C010BDFE7746809930C2202FB034421469B
S3150000201C42463046FFF794FF2279099B00287BD075
S3150000202C049B03B11C6091061ED4464809E01A793C
S3150000203C920642BFD8783F18BFB20C339C42F6D8F2
S3150000204C4148059B074493B121463046FFF758FF9C
S3150000205C2388B8F802100246029801F051FD60BBC5
S3150000206C7E200BB0BDE8F08F0027384BE6E7002D3D
S3150000207C35D021463046FFF743FF2388B8F80210C7
S3150000208C0246029801F03AFD0028E9D0DFF8C49028
S3150000209C28462379DB0615D521463046FFF730FF57
S315000020AC98F80060B8F8021014950346224630469C
S315000020BCCC460BB0BDE8F04F60473846DFF8989039
S315000020CC2F46E6E7019AA3785AB9E278A3F14101C3
S315000020DC012908D8013AD2B2394606F099FC0020FB
S315000020ECBFE7019AF2E7433B012B05D8023A92B2BD
S315000020FC394606F0A7FCF2E7059B2BB9019B1BB1F1
S3150000210CE37801998B4218D8394617B903F0D6FAF9
S3150000211CE5E703F077FAE2E712F0300F02BFE0785A
S3150000212C3F18BFB2013366E770890744BFB266E752
S3150000213C039BD8880744BFB249E7892091E700BFC3
S3150000214CB9230020244F0020444E0020188D030094
S3150000215C044F00203B3B00003F3B00002DE9F843B9
S3150000216C90F8048006461F4600254FF01409EBB282
S3150000217C984501D8002416E009FB05F033681C18B5
S3150000218C1B5A8B4217D12AB1802A0FD194F90C0015
S3150000219C002810DAB3F57C4F05D32046FFF79EFED8
S315000021ACB84200D03FB92046BDE8F883402A02D198
S315000021BC207B4006EED40135D9E7000030B50B4B39
S315000021CC0B4A1C780023D9B2A14201D3002030BDA2
S315000021DC1946013302EB031515F8105C8542F2D152
S315000021EC02EB0112507B00F00100F0E7B92300204E
S315000021FC044F002070B50A4B0A491D780023DAB249
S3150000220CAA4202D3FF22104670BD1C016618645CFC
S3150000221C844202D1747BE407F5D40133EFE700BFA7
S3150000222CB9230020044F00202DE9F0410D46164637
S3150000223C1F46FFF7DFFFFF280AD0074C04EB001000
S3150000224C3B46324629468068BDE8F041FFF786BF1B
S3150000225C0020BDE8F08100BF044F002008B51346EE
S3150000226C0022FFF7E1FF003018BF012008BD08B5BA
S3150000227C13464022FFF7D8FF003018BF012008BDD7
S3150000228C08B513468022FFF7CFFF003018BF012098
S3150000229C08BD08B540220023FFF7C6FF003018BF63
S315000022AC012008BD08B580220023FFF7BDFF0030D2
S315000022BC18BF012008BD000030B5094B094C197830
S315000022CC0023DAB28A4201D3FF2206E0013304EB83
S315000022DC031515F8105C8542F3D1104630BD00BFCE
S315000022ECB9230020044F00202DE9F0410D46164677
S315000022FC1F46FFF7E1FF054C04EB00103B46324648
S3150000230C29468068BDE8F041FFF728BF044F00203E
S3150000231C2DE9F84F0746884691469A46FFF784FF03
S3150000232CE0B10F4BDFF83CB01E7800252C46EBB223
S3150000233CB34202D32046BDE8F88F01350BEB0513EB
S3150000234C13F8100C8742F5D053464A464146FFF720
S3150000235CCBFF002818BF0134E4B2E8E7FF24E9E715
S3150000236CB9230020044F002013464022FFF7D0BFAC
S3150000237C0022FFF7F9BF0000014B0001185C704703
S3150000238C044F002070B50D46FFF734FFFF2818D018
S3150000239C0E4B03EB001082689AB100231179184694
S315000023AC1426DCB2A14200D870BD146806FB0344A7
S315000023BC247B45B114F0400F1CBF0130C0B2013371
S315000023CCEFE70020F0E714F0800FF5E7044F00204C
S315000023DC2DE9F0410F469046FFF70CFFFF280BD076
S315000023EC104B03EB00100023856829791C464FF02F
S315000023FC140CDAB2914202D80020BDE8F0812868AC
S3150000240C0CFB0300067BB8F1000F08D016F0400F4A
S3150000241C03D0BC42F1D00134E4B20133E9E716F043
S3150000242C800FF5E7044F00202DE9F04F89B00746E1
S3150000243C20F0B5FD3D4B1B780293824600244FF0ED
S3150000244C0C0B029B9C422ED2FF2F05D03846FFF771
S3150000245CD1FEFF28044626D0FF2F354E4FEA041333
S3150000246C60D1F218127B52455CD00134E4B2E8E735
S3150000247C1B68142202FB05352B89B3F5967F01D90F
S3150000248C0AF0A6FB4FF000092A891FFA89F39A4233
S3150000249C0CD808F10108B3681A795FFA88F5AA42D4
S315000024ACE6D8FF2FE1D009B0BDE8F08F1FFA89F10D
S315000024BC68680BFB01F14218137913F0100F29D140
S315000024CC96F800C08DF814C0B5F800C0ADF816C06B
S315000024DC13F0400F0CBF4FF0400C4FF0800C8DF8F2
S315000024EC18C0415AADF81A10284611460393FFF747
S315000024FC07FD039BADF81C005B07D1780DD50229AF
S3150000250C926800D91268012300930023194605A886
S3150000251CFFF72AFD09F10109B6E7022994BF083233
S3150000252C9268F0E74FF000081E44B4E7B923002088
S3150000253C044F00200021FFF777BF10B50121044698
S3150000254CFFF772FF2046BDE81040FFF723BC70472B
S3150000255C10B5047B14EA010310D0002201238B4230
S3150000256C03D3036953F8220010BD1C4218BF013275
S3150000257C4FEA430318BFD2B2DBB2F0E71846F3E7D3
S3150000258CF8B516461F469DF81820BDF81C300546B2
S3150000259CFFF74AFE78B10421FFF7DAFF044650B183
S315000025AC284603F091F93A4631462846A047BDE83D
S315000025BCF84003F078B9F8BD2DE9F74F0C9D9DF85E
S315000025CC34B01F4681468A46BDF83830144612B3DD
S315000025DC0DB307B392F804802A78618812F0080FBD
S315000025EC14BF402280224046FFF71EFE98B10821F8
S315000025FCFFF7AEFF064670B1404603F065F9CDE92C
S3150000260C005B3B46224651464846B04703B0BDE800
S3150000261CF04F03F048B903B0BDE8F08FF8B5BDF83C
S3150000262C185017461A462B460446FFF7FDFDE0B137
S3150000263C75B90221FFF78CFF0546B0B1204603F0B1
S3150000264C43F939462046A847BDE8F84003F02BB9B4
S3150000265C1021FFF77DFF064638B1204603F034F90A
S3150000266C2A4639462046B047EEE7F8BD73B5BDF8A5
S3150000267C184016461A4623460546FFF7D5FDB8B14F
S3150000268CC4B92021FFF764FF044670B1284603F055
S3150000269C1BF9099B00939DF81C209DF820303146B0
S315000026AC2846A047044603F0FEF8204602B070BD4B
S315000026BC8624FAE70024F8E72DE9F04186680446FB
S315000026CC007803F001F9002514273279EBB29A420F
S315000026DC03D8BDE8F04103F0E6B87B4332682078B6
S315000026ECD15A02EB030801F011FA01214046FFF71B
S315000026FC2FFF034608B1207898470135E5E700001F
S3150000270C70B5084D084E00242B78E0B2834200D8F1
S3150000271C70BD06EB0010437BDB0701D5FFF7CCFF42
S3150000272C0134F1E7B9230020044F00202DE9F041D4
S3150000273C1E4B06461E480C4619780023DAB28A420E
S3150000274C03D300242046BDE8F0815A1C00EB021589
S3150000275C15F8105CB54201D01346EFE700EB0310F9
S3150000276C437B03F001022CB143F00103437342B1E6
S3150000277C0124E7E74473002AFAD005464FF0140803
S3150000278C0DE0FFF799FFDDE71B6808FB04F41A1947
S3150000279C195B127B3046D209FEF7BAF93C46AB6898
S315000027AC1A79671CE4B2A242EED8E1E7B9230020FD
S315000027BC044F002010B5094B094AC01AC0F38F000C
S315000027CC00239C5A844202EB030101D1488810BDB8
S315000027DC0433302BF5D10020F9E700BFA48F03009A
S315000027ECD28C03002DE9F04F85B00F469346BDF809
S315000027FC382001929DF840107C7D88B3ACB3012C37
S3150000280C18BF04249DF84480DFF8889000263546CE
S3150000281C1FFA88F836F80900584519D109EB060055
S3150000282C90F803E01EEA040F12D090F802A08A4535
S3150000283C0ED31EF0100FFA7B19D04AB1CDE9023136
S3150000284CFFF7B8FFB7F810C08445DDE9023110D0A8
S3150000285C0436B6F5927FDDD1012005B0BDE8F08FC8
S3150000286C002C14BF04240824CCE70224CAE7002A4F
S3150000287CEED1A8450BD0019AAA4208D903F805A0B7
S3150000288C0F9A1088013501301080ADB2E0E70020B8
S3150000289CE3E700BFA48F03002DE9F04F89B01D4676
S315000028ACBDF848409DF850300193934623462A467E
S315000028BC07460E46FFF7B8FC8DF81470ADF8166097
S315000028CC8DF81850ADF81AB0ADF81C40814618B901
S315000028DC012009B0BDE8F08F05A9FFF71AFB002807
S315000028ECF6D09DF84C3000259BB22E462F462C4632
S315000028FC029336E00C231FFA85F8B9F8002003FB87
S3150000290C08F8D9F80430B2F57C4F03EB080A1AD351
S3150000291C33F8080058452ED3029BA3422DD902F05A
S3150000292C19FF9AF8020002F001FF019B43B19AF8D5
S3150000293C043013F0010F0CBF0520072002F0F6FE41
S3150000294C0134A4B219E033F80820ADF81A20514628
S3150000295C05AA48460393FFF7F3FA039B0028D7D141
S3150000296C0135B9F80820ABB29A42C3D83C44A31B34
S3150000297C58425841ADE70137BFB20136B6B2EFE760
S3150000298C2DE9F04F8FB098469DF8703006930023D2
S3150000299CBDF860908DF82C00ADF82E10ADF83220F5
S315000029AC009305460E46174608A91A460BA8089327
S315000029BC199C9DF868B09DF86CA08DF83080ADF828
S315000029CC3490FFF7D1FA089B002B00F09880BAF1EF
S315000029DC000F07D19A785A4540F094801A79D1079E
S315000029EC40F193801A79520735D59A6851689268E6
S315000029FC09910A92987806F0A1F8089B059093F82D
S31500002A0C03A0BAF1020F17D803465246214609A86D
S31500002A1C06F039F8059B0790524621460AA806F09F
S31500002A2C32F8079B012B01D0013014D14FF0870AE5
S31500002A3C50460FB0BDE8F08F059B099852462146CB
S31500002A4C06F021F80128F1D0059B0A98524621463A
S31500002A5C06F019F8E8E7069B002B59D1089B03945E
S31500002A6CDB78CDF80090CDE901B33A4643463146C2
S31500002A7C284601F095F882460028D9D1089B039484
S31500002A8CDB78CDF80090CDE901B33A4643463146A2
S31500002A9C2846FFF7EBFD82460028C9D10123009397
S31500002AAC069B224619460BA8FFF75EFA82460028BB
S31500002ABCBED1089B324629462046FFF748FD4346C1
S31500002ACC3A4631462846CDE901B4CDF80090FDF7DB
S31500002ADCA9FD089B0394DB78CDF80090CDE901B3F2
S31500002AEC3A4643463146284601F059F8CDF800904F
S31500002AFC43463A4631462846FFF790FD98E74FF095
S31500002B0C860A95E74FF08D0A92E74FF0880A8FE711
S31500002B1C4FF0000A8CE72DE9F04786B007460F9D6B
S31500002B2C9DF84060BDF838400094CDE901568846C2
S31500002B3C91469A4600F0E0FF98B102280ED84FF065
S31500002B4C0003049308BF0123CDE90263CDE90045D8
S31500002B5C53464A4641463846FFF712FF06B0BDE8D3
S31500002B6CF0870120FAE730B587B000240125CDE9BE
S31500002B7C03549DF82C5002950A9DCDE90045FFF7AC
S31500002B8CFFFE07B030BD30B587B000240125CDE976
S31500002B9C03549DF828500094CDE901354023FFF7E6
S31500002BACEFFE07B030BD10B586B04FF0010C002417
S31500002BBCCDE9034C9DF828400294099C0194BDF87C
S31500002BCC20400094FFF7DCFE06B010BD30B587B090
S31500002BDC00258DF81030BDF828308DF80C00ADF8B6
S31500002BEC0E10ADF81220ADF814300095BDF830304B
S31500002BFC0B9A0D9C029502A903A8FFF7B5F918B913
S31500002C0C14B1029B9B78237007B030BD1FB5089C8E
S31500002C1C03949DF81C400294069C01940024009495
S31500002C2CFFF7D4FF04B010BD2DE9F04FDFF8CCB0A0
S31500002C3C99B04FF00008FFF72DF95FFA88F5A84216
S31500002C4C02D819B0BDE8F08F2D010BEB05034FF040
S31500002C5C000904930BEB05035FFA89F49B681A7958
S31500002C6CA24202D808F10108E5E71B68142202FB10
S31500002C7C043400262289B3B29A4202D809F101091A
S31500002C8CE8E70C231FFA86FA03FB0AFA6368059336
S31500002C9C03EB0A0709F09CFF39462046FFF730F98B
S31500002CAC049B218893F800C0059B33F80A203B79D6
S31500002CBC4FF0000E13F0400F0DF11C0A4FF04103BC
S31500002CCCCDE9023ECDE9000A14BF802340236046BD
S31500002CDCFFF77CFF862806D0B878FFF7F1F820B10D
S31500002CEC504602F0BFFD0136C4E7B878FFF7EEF8A0
S31500002CFC0028F8D0504602F0BAFDF4E7044F002045
S31500002D0CF0B597B01646BDF87470042F48D90DF17E
S31500002D1C130403944124029405ADBDF8704000944D
S31500002D2C0195FFF753FF0446A0BB9DF81300A0F1D5
S31500002D3C4103012B21D8284602F094FD0130C4B280
S31500002D4CE31CBB422CDA304602F004FD154E002083
S31500002D5C02F0ECFC9DF8130002F0E8FC33881A191B
S31500002D6CFE2A1DDC1048A4B222461844294602F05D
S31500002D7C49FC30880444348012E0A0F14303012B53
S31500002D8C04D8284602F073FD0230D8E7FFF72EF878
S31500002D9C0446D5E7304602F0DDFC204602F0C6FCC0
S31500002DAC17B0F0BD7C4F00208C4F002010B50022D0
S31500002DBC1346815CA1F13004092C0AD8303B032A56
S31500002DCC0B4402F1010218BF1B01042AF1D118466B
S31500002DDC10BDA1F14104052C01D8373BEFE7A1F159
S31500002DEC6104052C01D8573BE9E70023EFE7000007
S31500002DFC2DE9F84F0A688B6880465D1CD018D35CA9
S31500002E0C222B8B46154440F0CE804C682E46002370
S31500002E1CB11AA14280F0C780317822291DD1C3F1A5
S31500002E2C0103301ADBF8102018449047814600281D
S31500002E3C00F0B98004464FF00C0AB54217D30023B4
S31500002E4C23701023C8E90339DBF80030F61A013673
S31500002E5CCBF808600120BDE8F88F5C2905D1013656
S31500002E6CB11A8C4240F29F8001330136D0E72B78A1
S31500002E7C5C2B03D0237001350134DEE7721B002A6C
S31500002E8C08DD6B78662B67D016D82F2B12D00CD892
S31500002E9C222B0FD0DBF8143048469847DBF800009D
S31500002EAC281ACBF808000020D5E75C2B02D0622B41
S31500002EBCF0D10823237051E0722B53D003D86E2B1C
S31500002ECCE8D10A23F6E7742B4FD0752BE2D1052AED
S31500002EDCE0DDA81CFFF76AFFA0F55C43B3F5806F35
S31500002EEC0746D7D3A0F55843B3F5806F40D2AB1D38
S31500002EFCF31A052BCEDDAB795C2BCBD1EB79752B8D
S31500002F0CC8D105F10800FFF751FFA0F55C43B3F5F6
S31500002F1C806FBFD2264BC0F3090003EA87273843DC
S31500002F2C00F580370C23B7F5803F30D3214A974202
S31500002F3CB0D84FF0F00C042000F1FF3E54FA8EFE90
S31500002F4CA645FAB227D1012814BF42EA0C0202F0B8
S31500002F5C7F022270044403E084F800A001340223AB
S31500002F6C1D446AE74FF00D03A4E74FF00903A1E7F0
S31500002F7C7F284FF0060306D9B0F5006FD3D24FF079
S31500002F8CC00C0220D8E74FF0000C0120D4E74FF01C
S31500002F9CE00C0320D0E702F03F0262F07F020EF84D
S31500002FAC0129BF09CCE7002D7FF478AF284652E7FC
S31500002FBC00FC0F00FFFF100010B540B1016871B1A5
S31500002FCC42688368934206D2CC5C202C00D910BD93
S31500002FDC01338360F5E7FAD1013A8260F7E70846D8
S31500002FECF5E710B1806800B101B970470139006886
S31500002FFCF9E72DE9F0470F4618B900242046BDE83D
S3150000300CF0870029F9D08468002A3ED1002CF4D030
S3150000301CA66ABEB3BE4241D007F1FF3A1AF8018F39
S3150000302C32F0B8FA4044B146437816F8015B03F027
S3150000303C0303012B08BF08F1200832F0ABFA284431
S3150000304C2B4642789AF8005002F00302012A08BF78
S3150000305C2033984526D032F09DFA284499F8006022
S3150000306C437803F00303012B08BF203532F092FAA4
S3150000307C30443346427802F00302012A08BF20335B
S3150000308C9D420BD02468C1E72468002CB5D0A16AF8
S3150000309C21B1384632F0A2FB0028F5D1A36A002BE9
S315000030ACACD1AAE7002DB9D1F8E710B5034630200C
S315000030BC9847044618B13022002132F0A6FA204671
S315000030CC10BD000070B50F4D044604B970BDE36821
S315000030DC2668D90503D4A06808B1FFF7F3FFE368A7
S315000030ECDA0503D4206908B16B689847E3689B0539
S315000030FC03D4A06A08B16B68984720466B6898475A
S3150000310C3446E2E7601B0020000000002DE9F04782
S3150000311C064692B00C4609B9002023E00F68002F32
S3150000312CFAD08D68D1F8048005F10409C1450BD895
S3150000313C0422AE49781932F086FB28B90423F360D1
S3150000314CC4F8089001200DE005F1050AD0450CD312
S3150000315C0522A749781932F076FB30B90120F060C8
S3150000316CC4F808A012B0BDE8F087C1450CD80422FB
S3150000317CA049781932F067FB30B90223F3600122BB
S3150000318C0023C6E90623DBE74545C5D27B5D222B2A
S3150000319C07EB050104D121463046FFF729FEE1E78E
S315000031AC2D2B03D0A3F13002092A51D80023019309
S315000031BCA8EB050502AFCA5C392A31D8302A05D2EC
S315000031CC2D2A03D02E2A01D02B2A05D1FA540133ED
S315000031DC3F2B01D0AB42EED112AA1344002501A914
S315000031EC384603F8405C33F051F9DDF804A0BA45D3
S315000031FC8046894690D0C6E908897AA3D3E900238C
S3150000320C31F08EFF80B16FF000420023C6E9062331
S3150000321C0823F360A368AAEB07071F44A76091E78E
S3150000322C452AD3D0652AD0E70022734B404649463F
S3150000323C31F06CFF20B14FF000424FF0FF33E5E761
S3150000324C4946404631F080FFC117C6E90601DFE763
S3150000325C5B2B54D1E368B3F57A7FBFF45DAF0133D2
S3150000326CE3607B5D5B2B7FF457AF0135A560204691
S3150000327CFFF7A2FED4E9012393425DD22268D25C09
S3150000328C5D2A01D1002527E0013B4FF00008A36021
S3150000329C45462069FFF709FF074648B335B3C8F81A
S315000032AC0000C0F80480A3680133A3602046FFF732
S315000032BC83FE21463846FFF729FFE0B12046FFF78B
S315000032CC7BFED4E90123934215D22268D35C2C2BC6
S315000032DCB846DED05D2B0ED1E368013BE3602023BC
S315000032ECC6E90253A3680133A3602BE70546DAE768
S315000032FC002D3FF411AF2846FFF7E4FE0CE77B2BBD
S3150000330C7FF40AAFE368B3F57A7FBFF405AF0133F8
S3150000331CE3607B5D7B2B7FF4FFAE0135A560204619
S3150000332CFFF74AFED4E90123934205D22268D25C08
S3150000333C7D2A04D1002746E0013BA360ECE64FF062
S3150000334C0008013BA3604746C1462069FFF7ADFE66
S3150000335C0546002840D0002F3CD0C8F80000C0F825
S3150000336C0480A3680133A3602046FFF725FE21469F
S3150000337C2846FFF73DFD90B32046FFF71DFE2B694F
S3150000338CAB62D4E901239342C5F8109027D2226888
S3150000339CD25C3A2A23D10133A3602046FFF70CFEF8
S315000033AC21462846FFF7B2FEC8B12046FFF704FEB9
S315000033BCD4E90123934212D22268D35C2C2BA84663
S315000033CCC3D07D2B0BD1E368013BE3604023C6E9F8
S315000033DC027387E70746C4E7002F3FF49DAE3846D5
S315000033EC8AE700BF0000C0FFFFFFDF41DC9003004F
S315000033FCE1900300E79003000000E0C12DE9F043E3
S3150000340C334F89B006468846914600211C2201A8F6
S3150000341C002432F0FAF8C7E90044002E4DD03046AD
S3150000342C019632F008FA2B4B0130029093E8070014
S3150000343C08AB03E90700FFF738FE054678B3019899
S3150000344C70B1039B5BB9029B042B06D9032222495C
S3150000345C32F0F9F908B90323039301A800E02046DA
S3150000346CFFF7AAFD01462846FFF750FEA0B1B9F1B9
S3150000347C000F06D1B8F1000F21D1284609B0BDE8DE
S3150000348CF08301A8FFF798FDDDE90223934203D2EE
S3150000349C019AD35C002BEDD02846FFF713FEDDE92D
S315000034AC0223934201D382B1531EB8F1000F02D00E
S315000034BCF218C8F80020C7E900630025DDE7019B78
S315000034CC039A1344C8F80030D7E71346EDE700BF5C
S315000034DCBC230020601B0020D8900300002211465C
S315000034ECFFF78CBF10B18368002003B97047013019
S315000034FC1B68FAE7002901DBFFF773BD0020704754
S3150000350C0022FFF776BD0122FFF773BD38B5C37BEA
S3150000351C05460BB1832038BDC47C2CB906F056FF8A
S3150000352C20B9EB7B002BF5D18120F4E72046F2E79E
S3150000353C38B5C37B05460BB1832038BDC47C6CB94A
S3150000354C017D82898B1C9A420AD3806802F065F948
S3150000355C0EF0B8F930B9EB7B002BEDD18120ECE7FE
S3150000356C8020EAE72046E8E7C37B10B504460BB19A
S3150000357C832010BDC37C1BB1012B10D08120F8E732
S3150000358C017D82898B1C9A420CD3806802F045F926
S3150000359C0FF0B0F840B9E37B002BE9D1EEE70FF062
S315000035ACC1F8F7E78020E4E70020E2E7C37B2DE9CA
S315000035BCF041044613B18320BDE8F081C37C032B94
S315000035CC18D8DFE803F002193E4D017D8289CB1C29
S315000035DC9A4201D28020EFE78068455C013102F007
S315000035EC1CF9014628460EF073FF002847D1E37BF1
S315000035FC002BE0D18120DFE7037D8289591C8A42AA
S3150000360CE8D39DB2691C881C8242E3D3A068C65CD1
S3150000361C02F003F90746A068B4F80C800335284479
S3150000362C02F020F9284401308045D3D3A289A06842
S3150000363C294602F0F9F83946024630460EF04EFF9E
S3150000364CD3E7007DA289831C9A42C3D383B2A568B3
S3150000365C9A1C01332A44E95C285C0EF045FFC4E74A
S3150000366C017D8289CB1C9A42B4D38068455C0131BA
S3150000367C02F0D3F8014628460EF03CFFB5E70020D1
S3150000368C9AE72DE9F34790F80FA00446BAF1000F1C
S3150000369C40F03A81C37C042B00F0C6800AD8012B7B
S315000036AC67D047D3022B00F09D80032B00F0AD8032
S315000036BC812045E0402B00F0CD8023D8062BF7D196
S315000036CC037D8289591C8A4239D39DB2A91C8A4230
S315000036DC05F1010733D3881C824230D3A068C65C3F
S315000036ECC75D02F09AF80246002E40F0B080A16841
S315000036FC2B1D0535CB5C0D4400953946304612F032
S3150000370C65FB2DE0412B00F0B980422BD0D1037D17
S3150000371C8289191D8A4212D39DB28068691CC65CC7
S3150000372C02F07BF80335A36801465A5D304614F067
S3150000373CADF915E0037D8289191D8A4203D28020DA
S3150000374C02B0BDE8F0879DB28068691CC65C02F0C9
S3150000375C64F80335A36801465A5D304612F01AFB2D
S3150000376C002840F0D380E37B002B14BF83208120FC
S3150000377CE6E7037D8289591C8A42E0D39DB2691C17
S3150000378C881C8242DBD3A068C65C02F046F8A2898C
S3150000379C291D8A42074605F10303D0D3A06810F809
S315000037AC0380DEB902F039F806352946A28981462E
S315000037BCA06802F039F88246A068284402F052F854
S315000037CC01300544A06810FA85F5CDE900A54B46F5
S315000037DC42463946304612F033FBC1E74FF6FF79C5
S315000037EC5546F2E7037D8289191D8A42A7D39DB2FD
S315000037FC8068691CC65C02F010F80335A3680146A4
S3150000380C5A5D304612F0D0FAAAE7017D8289CB1CAC
S3150000381C9A4294D38068455C013101F0FEFF014663
S3150000382C284612F0C7FA9BE7037D8289191D8A4246
S3150000383C85D39DB28068691CC65C01F0EEFF03352A
S3150000384CA36801465A5D304612F0BAFA88E7FF23A0
S3150000385C002551E7037D8289191D8A42FFF46FAF5B
S3150000386C9DB28068691CC65C01F0D7FF0335A3685E
S3150000387C01465A5D304614F0EDF871E7037D8289F6
S3150000388C591C8A42FFF45BAF9DB2691C881C8242AC
S3150000389CFFF455AFA068C65C01F0BFFFA289291DD5
S315000038AC8A42074605F10303FFF449AF881C82429E
S315000038BCFFF445AFA06810F8038001F0AEFF814617
S315000038CCA068B4F80CA00635284401F0CBFF2844B8
S315000038DC01308245FFF433AFA289A068294601F076
S315000038ECA3FF8246A068284401F0BCFF01300544C2
S315000038FCA06810FA85F5CDE900A54B464246394637
S3150000390C304614F0B1F82BE7832019E7002017E7AF
S3150000391CC37B2DE9F74304461BB1832003B0BDE8F6
S3150000392CF083C37C412B33D0422B42D0402B2DD17C
S3150000393C037D828903F110018A424BD39DB28068C4
S3150000394C05F10801C61801F068FF05F10A030746E0
S3150000395CA068A28910F8038005F10B0101F05DFF48
S3150000396C05F10D018146A289A06801F056FF0F35BD
S3150000397CA3685B5D4246CDE9000339464B463046AB
S3150000398C14F08AF840BBE37B002BC6D18120C5E737
S3150000399C057D8289EB1C9A421CD3AAB28068961CC0
S315000039AC511CD31C0344825D415C405D14F07AF8D3
S315000039BCE8E7057D8289EB1C9A420BD3AAB2806894
S315000039CC961C511CD31C0344825D415C405D14F073
S315000039DC87F8D7E78020A1E700209FE7C37B10B5C7
S315000039EC0446ABB103690D4A23F47F03934201D01D
S315000039FC832010BD037D818903F10802914209D30E
S31500003A0C80681844FCF7B0FF30B9E37B002BEFD18C
S31500003A1C8120EEE78020ECE70020EAE7A2100011F7
S31500003A2C38B5C37B002B437D14BF8325C325012BDF
S31500003A3C044639D10368028A59885879FEF720FC66
S31500003A4C90B323685B88062B0DD006D8042B1AD0AE
S31500003A5C1ED8032B12D0284638BDB3F5407F02D0B2
S31500003A6C05D8082BF7D1E37BBBB18325F3E7B3F578
S31500003A7C805F14D04FF610429342F3E72046BDE820
S31500003A8C3840FFF755BD2046BDE83840FFF78EBDE0
S31500003A9C2046BDE83840FFF7F4BD8125DBE720461C
S31500003AACBDE83840FFF734BF637D002BD3D12368C4
S31500003ABC228A59885879FEF7DAFB0028CBD023687E
S31500003ACC5B88032B12D006D8002BC4D12046BDE848
S31500003ADC3840FFF71BBD192BC5D04FF61042934249
S31500003AECB9D12046BDE83840FFF778BF2046BDE87F
S31500003AFC3840FFF739BD70470120704701207047E9
S31500003B0C012070477047B5207047704770470020FA
S31500003B1C7047002070470020704700207047002037
S31500003B2C7047002070470020704700207047012026
S31500003B3C7047012070470020704700207047002016
S31500003B4C70470020704700207047704784207047EC
S31500003B5C7047704770477047012070477047704731
S31500003B6C704701207047002070477047704700204F
S31500003B7C70476FF02F00704700207047034B1B688F
S31500003B8C1878012808BF0220704700BF5C2400206B
S31500003B9C70470320704770477047704770477047EF
S31500003BAC00207047002070470020704700207047A7
S31500003BBC0020704700207047002070470020704797
S31500003BCC7047B5207047002070470020704770473B
S31500003BDC7047704700207047704701220521104638
S31500003BEC05F0F8B804220521012005F0F3B80322EC
S31500003BFC0521012005F0EEB802220521012005F071
S31500003C0CE9B805221146012005F0E4B80622052183
S31500003C1C012005F0DFB841220521012005F0DAB8B4
S31500003C2C40220521012005F0D5B8422205210120AC
S31500003C3C05F0D0B800220521012005F0CBB80222F0
S31500003C4C0621012005F0C6B842220621012005F006
S31500003C5CC1B841220621012005F0BCB8012206217B
S31500003C6C104605F0B7B840220621012005F0B2B87F
S31500003C7C00220621012005F0ADB8032208210120FF
S31500003C8C05F0A8B802220821012005F0A3B80722E6
S31500003C9C0821012005F09EB806220821012005F016
S31500003CAC99B804220821012005F094B805220821B0
S31500003CBC012005F08FB800220821012005F08AB8F2
S31500003CCC01220821104605F085B840220321012067
S31500003CDC05F080B801220321104605F07BB80022BE
S31500003CEC0321012005F076B802220321012005F0FC
S31500003CFC71B801220421104605F06CB80422114655
S31500003D0C012005F067B803220421012005F062B8F2
S31500003D1C05220421012005F05DB8002204210120B2
S31500003D2C05F058B847224FF44071012005F052B8FF
S31500003D3C05224FF44071012005F04CB802224FF4D5
S31500003D4C4071012005F046B84C224FF44071012019
S31500003D5C05F040B809224FF44071012005F03AB83D
S31500003D6C03224FF44071012005F034B806224FF4BB
S31500003D7C4071012005F02EB800224FF4407101204D
S31500003D8C05F028B80A224FF44071012005F022B83C
S31500003D9C07224FF44071012005F01CB804224FF4A1
S31500003DAC4071012005F016B801224FF440711046FF
S31500003DBC05F010B84B224FF44071012005F00AB8FB
S31500003DCC08224FF44071012005F004B844224FF448
S31500003DDC4071012004F0FEBF42224FF440710120D5
S31500003DEC04F0F8BF43224FF44071012004F0F2BFF7
S31500003DFC40224FF44071012004F0ECBF41224FF4F5
S31500003E0C4071012004F0E6BF01220021092004F0D4
S31500003E1CE1BF000002292DE9F84F05468A4602D972
S31500003E2C63B1042908D85B49022003F075F84FF0FA
S31500003E3C000B5846BDE8F88F42F004020C9C2A7021
S31500003E4C002B3ED06B701B0AAB70032704F082FB71
S31500003E5C07F1020BE85501379DF82830EB554FF06A
S31500003E6C00095FFA89F30B9AD65C002EE1D0732E0B
S31500003E7C50D8A6F14C01C9B2162904F104082768DA
S31500003E8C29D8454B23FA01F1C94311F001012CD174
S31500003E9C60684C2E04F1080884B214D14FF6FF71F9
S31500003EAC20468C4214BF022100210BEB04020A446B
S31500003EBC92455EDA621839493346022003F02CF833
S31500003ECCB5E70127C2E7532E0DD1C0B2B0F1FF0101
S31500003EDC18BF0121E9E76C2E07D1384601F0C7FC63
S31500003EEC023084B200210846DFE7732E04D138462F
S31500003EFC01F0B8FC0130F4E7A6F13004E2B2092A6D
S31500003F0C01D8A4B2EEE7A6F14102062A0AD8A6F118
S31500003F1C3704F6E7752E0BD0762E10D0782E10D0EF
S31500003F2C772E10D032461E49022002F0F5FF7EE7AE
S31500003F3C012104F10408206800242746B5E7022174
S31500003F4CF7E70321F5E70421F3E70CF1010E013A3B
S31500003F5C05F80C00D2B2000A1FFA8EFC002AF4D126
S31500003F6C8B441FFA8BFB84B137B9334622460D4975
S31500003F7CA3E7DC460A46F1E705EB0B002246394679
S31500003F8C01F040FBA3441FFA8BFB09F101094446DF
S31500003F9C67E700BF6FAB030081004000ADAB0300C9
S31500003FAC94AB0300E0AB030010B5044C206004484E
S31500003FBC018004490A60044A136010BDCC2300201A
S31500003FCCD0230020C8230020C423002070B586B05F
S31500003FDC0AAC0D4654F8046B0B49059409880093FA
S31500003FECCDE901641346024608480068FFF712FF44
S31500003FFC074B1B681880074B1B684FF482525D8079
S3150000400CDA8006B070BD00BFD0230020CC23002080
S3150000401CC8230020C423002008B430B586B009ABF1
S3150000402C0C4653F8045B0D49059309880092CDE9BB
S3150000403C015302460A4800230068FFF7EBFE094BC2
S3150000404C1B681880084B1B684FF482525C80DA8020
S3150000405C06B0BDE8304001B0704700BFD023002049
S3150000406CCC230020C8230020C423002007B5064B10
S3150000407C1B681A880091054B05491B680968FCF7F3
S3150000408C6FFE03B05DF804FBC8230020CC23002090
S3150000409CC42300200021FFF7E9BF000007B5074B3A
S315000040AC1B681B880192064A12680092054A126820
S315000040BCFCF7C3FE03B05DF804FB00BFC823002069
S315000040CCCC230020C42300200022FFF7E7BF00000A
S315000040DC07B5064B1B681A880091054B05491B68EA
S315000040EC0968FCF791FE03B05DF804FBC8230020B9
S315000040FCCC230020C42300200021FFF7E9BF0000D9
S3150000410C1FB5094C24680394084C2468248802942F
S3150000411CBDF818400194064C246864880094FCF79A
S3150000412CB8FE04B010BD00BFCC230020C82300206D
S3150000413CC4230020024B1B6818715971704700BFCD
S3150000414CC4230020F8B50D468C680A682649064635
S3150000415C202009F0AEF96B687BB92449202009F0C0
S3150000416CA8F9202011F0BCFE2149202009F0B6F94F
S3150000417C2020BDE8F84011F0B3BE002EF1D01D4D45
S3150000418C1D4E1E4F013C14F8013F23B9184920203F
S3150000419C09F0A4F9E5E7752B16D0762B16D0772BFC
S315000041AC16D0732B16D0722B16D0712B16D0622B01
S315000041BC16D06E2B16D01249124A2A2B18BF11464E
S315000041CC202009F076F9DEE72946F9E73146F7E7CC
S315000041DC3946F5E70C49F3E70C49F1E70C49EFE7EB
S315000041EC0C49EDE70C49EBE73BE70300A2AC0300F7
S315000041FC53AC030060AC030054AC03006BAC03007F
S3150000420CA9AC0300A6AC030077AC030081AC030099
S3150000421C8CAC030097AC0300A1AC0300F0B5214AAB
S3150000422C92F87B30184452FA80F01F4B90F865C018
S3150000423C90F866501F78A5EB0C050026EDB23046BB
S3150000424CF4B2A54225D90CEB060313445B7811B1E5
S3150000425C0CB92D2B17D0782B1FD0582B05D108B1A4
S3150000426C37240AE0013C012C14D9602B17D8402BBB
S3150000427CF6D83A2B34BF302400241B1BDBB29F42EA
S3150000428C03D900FB07300136DAE7052382F87930CB
S3150000429C0020F0BD10270020F5E70028E2D05724B7
S315000042ACEBE700BFD22300206C1B0020014B1B68E0
S315000042BC18687047484F0020094A0023FF211370E5
S315000042CC82F8783082F8653082F8773082F8793067
S315000042DC82F87A1082F87B30024A1360704700BF6E
S315000042ECD2230020484F0020034B93F8770093F815
S315000042FC7B30C01AC0B27047D22300200021FFF7D2
S3150000430C8DBF000010B50A4B93F87B20024453FA7C
S3150000431C82F292F8652013445C78A4F12D0359427D
S3150000432C5941FFF77BFF2D2C08BF404210BD00BF43
S3150000433CD223002030B50C4A92F87B300344C0439C
S3150000434CDBB2C00F39B1D51895F8664095F86550B3
S3150000435C641B241A0C7042FA83F393F865301844E4
S3150000436C024B184430BD00BFD2230020D3230020BB
S3150000437CF7B50E460DF1070115461C46FFF7DAFF99
S3150000438C9DF80730AB42074688BF8DF807501CB125
S3150000439C9DF807402C1BE4B222463046002101F062
S315000043AC8DF930199DF80720394601F02BF99DF847
S315000043BC070003B0F0BD38B508220C460123FFF701
S315000043CCD7FF04F10803621E043413F8011D12F81A
S315000043DC015F1D70A3421170F7D138BD38B5014687
S315000043EC05460120FFF7AEFED5E901436CB91C4624
S315000043FC084D236863B12946202009F05AF8214656
S3150000440C0020FFF79FFE0C34F3E71B786E2BEFD0E2
S3150000441C38BD00BFAEBC030008B50449202009F026
S3150000442C48F82020BDE8084011F05ABD14AC030032
S3150000443C38B5FFF7F1FF064D002461190C346319EA
S3150000444C53F80C3C03B938BD0020FFF77BFEF4E7AC
S3150000445C009103002DE9F84F1F4B204D53F82020F7
S3150000446C1F49202009F025F82B681BB9BDE8F84F29
S3150000447CFFF7DEBF1B4FDFF874A0FFF7CDFF00265A
S3150000448CB94697F87B30F4B2013B9C4204DB2868B2
S3150000449CBDE8F84FFFF7A2BF47FA86F34C4493F8F2
S315000044AC65800023C84494F8662094F86510521A67
S315000044BC03F1010BD2B2DBB2934205D30A49202099
S315000044CC08F0F7FF0136DCE7434451465A782020C2
S315000044DC08F0EFFF5B46E6E7701B0020484F002014
S315000044EC0FAC0300D2230020AFBC030092B603002E
S315000044FC2DE9F74F824C94F87730002B00F0A3800F
S3150000450C804B1B7813F0010F04F101071FD0002517
S3150000451C7D4E14E06319202093F8662093F86530DD
S3150000452CD21A44FA85F3D2B293F86510394411F0D5
S3150000453CD2FC3146202008F0BCFF0135EDB294F8D0
S3150000454C7730AB42E6D87149202008F0B2FF94F8D8
S3150000455C77300193DFF8C0E16D4B002671461EF8EB
S3150000456C012B91F801C04FF00008ACEB020C07EBE5
S3150000457C020A5FFA8CFC45461868002853D00138AD
S3150000458CD14619E02AB9002D4BD04FF001080C3357
S3150000459CF2E719F8011BA1F1410BBBF1190F98BFFA
S315000045AC2031A2F1410B98BFC9B2BBF1190F9CBFC8
S315000045BC2032D2B28A42EAD1A9EB0A01614510F83F
S315000045CC012FDFD1002ADED11D46524B1D6094F817
S315000045DC7B30013384F87B30D5E901230136F6B202
S315000045EC002A36D01B786E2B32D03F2B24D04FF0BE
S315000045FC00094F464FF0070A4FF0040B5FFA89F09B
S3150000460C811994F877C0AA68C9B28C45D35D28D8AD
S3150000461C93B117447B782A2B1CBF032384F879307B
S3150000462C0AE01D46B3E7B8F1000F01D1002DCCD13D
S3150000463C022384F87930002594F8790000285CD19F
S3150000464C686800F02FF903B0BDE8F04FFFF734BEF1
S3150000465C1346019AB24281D8032284F879201D466A
S3150000466CEAE7732B08D8712B0AD2002B43D0622BA6
S3150000467C30D084F879A016E0A3F17502022AF8D896
S3150000468C752B1ED0762B1FD0732B20D0722B47F692
S3150000469CFF7818BF4FF0FF380121FFF7BFFD4045EB
S315000046AC01D984F879B0AB683B4409F101095B7810
S315000046BC2A2B94F879301CBF0137FFB2002B9DD002
S315000046CCBAE74FF0FF08E7E74FF6FF78E4E74FF05D
S315000046DC7F08E1E794F87B30184454FA80F090F8A0
S315000046EC653023445B78222BDDD07B2BDBD0052376
S315000046FC84F87930D7E70323FAE7FFF7ABFEA2E796
S3150000470CD22300204E240020AFBC030051AC030082
S3150000471C00910300484F0020372400202DE9F34177
S3150000472C5E4C5F4F06460D464FF0000866B90DF11C
S3150000473C0701284611F0C8FB78B1262800F0A9809D
S3150000474C012384F879304BE0002D00F0A28016F896
S3150000475C013B8DF80730013DEDB23A789DF80730F4
S3150000476C3B700D2A01D10A2BE0D00D2B0CD0A3F1F6
S3150000477C0A025142514122788846042AD6D8DFE8EB
S3150000478C02F0051D263C31000121F4E721B1FFF7AB
S3150000479CAFFE4FF00108C9E7202B63D0222B07D1BF
S315000047AC0223237094F87820642A5DD10623C8E787
S315000047BC7B2B01D10323F4E70123F2E709B9202B64
S315000047CCF0D194F87730112B3FD10323B9E7222B84
S315000047DCF7D00029E6D0052384F879304FF001088C
S315000047EC04232370B8F1000FA0D094F8790008B117
S315000047FCFFF730FEFFF760FD98E77D2B94F87A0003
S3150000480C03D1FF28DDD005239BE7602B13D8402B63
S3150000481C13D8392B8CBF002230229A1AD2B20F2A07
S3150000482C10D8FF280BD002EB0012FF238DF80720BF
S3150000483C84F87A30B6E75722EFE73722EDE784F8AB
S3150000484C7A2073E7202BDED170E70133DBB284F8D4
S3150000485C7730234494F8782083F86520002323705E
S3150000486C002994D1884661E72378012B09D19DF85C
S3150000487C0730A3F1410119299CBF2033DBB28DF817
S3150000488C0730A3189DF807105970013284F8782068
S3150000489C4CE7404602B0BDE8F08100BFD2230020B1
S315000048AC4F24002010B5054B0446187800F0F4FF91
S315000048BCA047BDE8104000F0F6BF00BF6A280020F4
S315000048CC7FB501A8FCF718FE01AA0349042002F0E3
S315000048DC23FB07B05DF804FB81AF03002DE9F04F15
S315000048EC18228DB0FF230DEB020000218DF80A3043
S315000048FC30F08BFE0DF10B014FF0FF30FFF71AFD78
S3150000490CFFF7DEFF41F202029D49042002F004FB90
S3150000491C04A8FDF701F906A90DF10A00FDF702F945
S3150000492C0420984902F014FB042002F0E1FA10B1BD
S3150000493C04A802F059FA9DF922309DF823209249D9
S3150000494C042002F0E9FA22F0C5FF831EDBB2FC2B31
S3150000495C05462AD88D498E4E8E4FDFF8A482042048
S3150000496C02F0DAFA012422463146042002F0F0FA6B
S3150000497C03A9E0B222F058FF9128024600F0958078
S3150000498C932800F09280002840F094809DF90C103A
S3150000499C00919DF80E309DF80D207F49042002F001
S315000049ACBBFA0134E3B2AB42DDD3BDF82040FCF7D1
S315000049BCC5FE224603467949042002F0C9FA0420B2
S315000049CC774902F0C5FA042002F092FA10B106A853
S315000049DC02F00AFA7349042002F09EFA28F054F900
S315000049EC044628F04BF9224603466F49042002F090
S315000049FC93FAFDF7B7F86D49042002F0A9FA9DF871
S31500004A0C0A20FF2A5BD06A49042002F0A1FA654904
S31500004A1CDFF8F081042002F07FFAFDF78FF8654A83
S31500004A2C65490346042002F077FA22F0C5FE634975
S31500004A3C0246042002F08CFAFDF78CF80446FDF7CA
S31500004A4C8FF8224603465E49042002F065FAFDF70C
S31500004A5C21FA5C490246042002F05EFA0025FDF7B5
S31500004A6C19FAECB2A0422FD801225749574C042010
S31500004A7C02F052FA002000F00FFF554B5549002268
S31500004A8C042002F049FA236853B11A7852490420DB
S31500004A9C02F042FA236851495A78042002F03CFA93
S31500004AAC00F001FF0DB0BDE8F08F3946042002F08E
S31500004ABC33FA76E74146042002F02EFA71E74849AC
S31500004ACC042002F045FAA2E7464B474F03EB0416C7
S31500004ADC2046D6F80890FDF74FFC82462046FDF797
S31500004AECDFF9002814BFC346BB462046FDF744FC3D
S31500004AFC03F046FC002814BF404638465B4600903F
S31500004B0C52463A49DFF800B1042002F021FAB17995
S31500004B1C7388327B0191B18800910420344902F0EC
S31500004B2CFBF9002699F80430F4B2A34201D80135FA
S31500004B3C95E7D9F800702F482F4914235C4307EBEF
S31500004B4C040A3B5B9AF90C2011EA220138BF014694
S31500004B5C0A460420594602F0FBF9042002F0C8F973
S31500004B6C38B150463C5BFDF7B9F90146204603F0D7
S31500004B7C7BFC2249042002F0CFF90136D2E700BFB4
S31500004B8C44AD03005FAD03008BAD030066AD0300BF
S31500004B9C7CAD0300A0AD030083AD0300ABAD0300F9
S31500004BACC9AD030019890300D2AD0300F3AD0300B0
S31500004BBC43EA0300C7EB030006AE030014AE030082
S31500004BCC28AE030037AE0300ABAE03005C24002016
S31500004BDCB7AE0300C5AE0300D1AE0300E3AE0300CF
S31500004BECFEAD0300044F002023AD030042AE0300CC
S31500004BFC62AE030038AD03002CAD030053AC0300CA
S31500004C0C18F403001BAD030094AE030008B5002096
S31500004C1CFFF774FBBDE8084080B202F0E7B908B5AF
S31500004C2C0020FFF76BFBBDE8084080B202F0F2B93A
S31500004C3C70B5074D074E00240C34631953F80C2C31
S31500004C4C02B970BD3146042002F066F9F4E700BFE4
S31500004C5C009103003BE7030008F0E0B808B500201C
S31500004C6CFFF74CFB054B1A7810F0FF0F14BF42F000
S31500004C7C010222F001021A7008BD00BF4E2400206A
S31500004C8C2DE9F8431BF06AFE104EDFF84C80DFF876
S31500004C9C4C9007460025EBB256F833400CB9BDE8EC
S31500004CACF88358F823204946012002F051F923785D
S31500004CBC2BB90749012002F02FF90135EBE76268A1
S31500004CCC0449D21B012002F027F9F6E79083030072
S31500004CDC72AF03007BAF0300D01A00206BAF03004A
S31500004CEC10B52BF02DFF0D490446012002F030F9CA
S31500004CFC022C0DD0032C0DD0012C0DD1084901200E
S31500004D0C02F026F907490120BDE8104002F004B96B
S31500004D1C0549F4E70549F2E70549F0E7FCAE03005F
S31500004D2C19AF0300CDE803001FAF03002EAF03003D
S31500004D3C3EAF03002DE9F843114EDFF854800025F1
S31500004D4CFDF7A8F8ECB2A04201D8BDE8F88327011C
S31500004D5C204616F80790FDF7A3F80A4B0A490028D7
S31500004D6C18BF43464A46012002F0F2F8F05DFCF704
S31500004D7C56FF0649012002F0CFF80135E0E700BFE7
S31500004D8C044F0020DCB2030060AF030053AC0300F9
S31500004D9CD2B2030008B50020FFF7B0FA094B1B6826
S31500004DAC1B681978A1F1650359425941C0B2FDF748
S31500004DBCBDFC28B904490120BDE8084002F0ACB896
S31500004DCC08BD00BF484F002046AF030049BA89B260
S31500004DDC4840C0F303114140080380B24840C3B2B7
S31500004DEC80EA431070470000014B1878704700BFEB
S31500004DFC50240020014B1870704700BF502400202F
S31500004E0C1EF012BF38B5A0F1430305460A2B31D864
S31500004E1CDFE803F0060A0A12123030303030110087
S31500004E2CBDE838401BF086B91BF050F920B11BF0D9
S31500004E3C81F90028FBD138BD114C20780028FAD115
S31500004E4C0123443D237011F0C3FC032D0DD8DFE87C
S31500004E5C05F00606090240F601001BF04FFD002383
S31500004E6C2370E8E740F60200F7E77A21054807F0D9
S31500004E7CD3F8F4E78C210348BDE8384007F0CCB8EA
S31500004E8C5124002090AF030070477047704770475D
S31500004E9C70477047704770477047704770470020DF
S31500004EAC7047704770470020704770470020704766
S31500004EBC7047012070470120704770477047704754
S31500004ECC7047704770470000014B01221A707047FB
S31500004EDC984B0020014B1878704700BF984B002068
S31500004EEC84B004AB03E9070004B070472DE9F04F1A
S31500004EFC24220C4689B00021054630F086FB20465C
S31500004F0CFEF7ECFA0446002800F0E0807549FEF73F
S31500004F1CFAFA002800F0A48072492046FEF7F3FA4C
S31500004F2CD0E9080130F038F9C3B200936E49204637
S31500004F3CFEF7E9FA002800F095806B492046FEF74B
S31500004F4CE2FAD0E9080130F027F9C3B201936749B8
S31500004F5C2046FEF7D8FA30B164492046FEF7D3FA5C
S31500004F6C006930F04DFC029061492046FEF7CBFA01
S31500004F7C30B15F492046FEF7C6FA006930F040FCB6
S31500004F8C07465C492046FEF7BEFA30B15949204621
S31500004F9CFEF7B9FA006930F033FC0646564920464E
S31500004FACFEF7B1FA30B154492046FEF7ACFA006967
S31500004FBC30F026FC039051492046FEF7A4FA00284F
S31500004FCC52D04E492046FEF79EFAD0E9080130F041
S31500004FDCE3F85FFA80F84A492046FEF794FA30B1B6
S31500004FEC47492046FEF78FFA006930F009FC45491F
S31500004FFC04902046FEF784FA0590FEF773FA5FFAE2
S3150000500C80FA52464049012001F086FF0598FEF7CA
S3150000501C69FA1823584330F0CBFA0023024681462E
S3150000502C534509F1180921D120460592FEF74AF895
S3150000503C9DF800302B709DF804306B70029B059A1E
S3150000504CEE60C5E90137039B2B61049B85F8148040
S3150000505C2846AB6185F81CA02A6209B0BDE8F08F22
S3150000506C009063E7019072E78046B4E7194605980D
S3150000507C07920693FEF73EFA24498346FEF740FA5A
S3150000508C006930F0BDFB224949F8100C5846FEF772
S3150000509C37FAD0E9080130F07FF81E4909F80C0CF4
S315000050AC5846FEF72DFA006930F0AAFB1A4949F862
S315000050BC080C5846FEF724FAD0E9080130F0A4F89B
S315000050CC069B079A49E906010133A9E7024682467F
S315000050DC04908046039006460746CDE901000090F1
S315000050ECA2E700BFADC303004BA4030085B10300C8
S315000050FC88B103008CB103008FB1030093B1030098
S3150000510C11A7030096B103009AB1030092A3030002
S3150000511C08A9030091B1030063A30300F7B5054684
S3150000512C10220846002131F041FA070EC0F307465B
S3150000513C84B2009433463A460449012001F0ECFE51
S3150000514C28462F806E806C6003B0F0BD31B1030031
S3150000515C2DE9304C9DB06B4683E80300BDF800008A
S3150000516C0199030A0206BDF802004FEA004B4FEA0A
S3150000517C104C1BEB02044CEB030514EB010A45F136
S3150000518C000B52465B460F49012001F0C5FE524604
S3150000519C0D495B4603A830F001FB002303A88DF8EC
S315000051AC143030F048FB30F003FA03A9044630F013
S315000051BC1FFB03AA0549012001F0AEFE20461DB0D7
S315000051CCBDE8308CFBD3030042B0030047B00300AC
S315000051DCF7B505460C460A4601200F4901F09CFE20
S315000051EC002300220D49012001F096FE10222046D4
S315000051FC002131F0A5FA8FB2060C84B20094334626
S3150000520C3A460749012001F087FE2846C5E9007693
S3150000521CAC6003B0F0BD00BFAEB10300C3B1030078
S3150000522CCEB103002DE9F0499FB001AB83E807002E
S3150000523CDDF80880039C184F201C4FF000054FEA40
S3150000524C084B4FEA184C45F582711BEB00024CEBF0
S3150000525C01030120114901F05FFE002639464FF487
S3150000526C8272002305A830F099FA42463346394635
S3150000527C06A830F093FA22462B46394607A830F09A
S3150000528C8DFA0D208DF8206030F092F905A930F0DA
S3150000529CAFFA1FB0BDE8F089C3B00300ADB0030090
S315000052ACF7B500240F4E8DF8064005460F4615F847
S315000052BC14308DF8043005EB440310225B788DF81E
S315000052CC0530002101A831F071F922463855C3B2D8
S315000052DC31460120013401F01FFE082CE7D103B042
S315000052ECF0BD00BF62B10300F0B50C4F9BB0451E7C
S315000052FC002401AE301915F8012F3946023430F06E
S3150000530C4DFA102CF6D101A830F095FA30F050F980
S3150000531C01A930F06DFA1BB0F0BD00BFEFBC030065
S3150000532CF7B500240F4E8DF8064005460F4615F8C6
S3150000533C14308DF8043005EB440310225B788DF89D
S3150000534C0530002101A831F031F922463855C3B297
S3150000535C31460120013401F0DFFD122CE7D103B0F8
S3150000536CF0BD00BF72B10300FFF7BEBF2DE9F043DD
S3150000537C04469BB00F46002937D00A4601201C492B
S3150000538CDFF87C9001F0C8FD4FF000084646791E08
S3150000539CB14201ABA2680CBF1649494603EB0800A3
S315000053AC236930F0FBF9A06830F045FA0546206910
S315000053BC30F041FA103501364544B74205EB00088A
S315000053CC04F11804E3DC01A830F035FA30F0F0F8FB
S315000053DC01A9044630F00CFA22460749012001F0D7
S315000053EC9BFD20461BB0BDE8F083044CF9E700BFDB
S315000053FC60B003006BB0030094B0030053AC030021
S3150000540C7FB0030084B010B59EB020AC84E80F00CA
S3150000541C219B0393249B02939DF881300193239B3C
S3150000542C9DF880200C49009305A8229B30F0B6F914
S3150000543C05A830F000FA30F0BBF805A9044630F0A8
S3150000544CD7F922460549012001F066FD20461EB01B
S3150000545CBDE8104004B0704705B003003DB2030030
S3150000546C84B010B5ADF5067D88AC84E80F009DF8C8
S3150000547C3C129098FFF77AFF184904460246012021
S3150000548C01F04AFD8E9906919DF834129DF8213251
S3150000549C9DF82022CDE904418C9903918B990291B8
S315000054AC8A9901918999009109A80D4930F076F9EC
S315000054BC09A830F0C0F930F07BF809A9044630F0A1
S315000054CC97F922460749012001F026FD20460DF5E5
S315000054DC067DBDE8104004B0704700BFC9B003009C
S315000054ECD7B003003DB2030084B02DE9F04106AC01
S315000054FC84E80F00DDE90780DDE909760C9D0E9C3A
S3150000550C08B130F05DF8B8F1000F02D0404630F02B
S3150000551C57F817B1384630F053F816B1304630F01C
S3150000552C4FF815B1284630F04BF800259DF834306D
S3150000553CAB4203DCBDE8F04104B07047A06808B18B
S3150000554C30F03EF8206908B130F03AF801351834DD
S3150000555CECE700002DE9F047204DDFF8A090DFF8CE
S3150000556CA0A000245FFA84F8404622F0BFF9FF2879
S3150000557C06460CD122461A49287807F0AFFF287840
S3150000558C013410F0ADFC142CECD1BDE8F087154BB2
S3150000559C59F82420144947B213EA270338BF534657
S315000055AC287807F09BFF002FE9DA14B1B8F1030F46
S315000055BC08D10E4B0E49287816F0010F18BF194664
S315000055CC07F08CFF0A2CDAD10A4B0B49287816F017
S315000055DC010F18BF194607F081FFD0E75D1B0020AD
S315000055ECE5B2030053AC03000DB30300A8B20300ED
S315000055FCBEB20300D0B20300DAB2030054B2030009
S3150000560C0ABB03008842F0B54FEA92031AD89BB244
S3150000561C9E00871904460D4604370434BC4205F136
S3150000562C04053AD1C3EB8333314402EB8303013EC9
S3150000563C304411FA83F3994220D011F8012B00F86B
S3150000564C012FF8E7541E20449BB22144A0EB83069D
