S01400005A33537769746368536F635F322E7333372B
S31500000000A01A002009090200DDC90000E1C90000AC
S31500000010A70A02020002000004180FAC5065B001E6
S3150000002000000000000000000000000000000000CA
S315000000300000000034E8030000000000000000009B
S315000000400000000000000000FFFFFFFFFFFFFFFFB2
S31500000050FFFFFFFFFFFFFFFFFFFFFFFFFFFFFFFFAA
S3150000006000E00F000000000000001000FFFFFFFF8F
S31500000070FFFFFFFF1C000000000000000000000062
S31500000080886D00208861002088610020886100203A
S31500000090A01A002060320400947E03004011002064
S311000000A01011002000001000886D0020E8
S31500000200A01A002009090200DDC90000E1C90000AA
S31500000210E9C90000E5C90000EDC9000005090200B2
S315000002200509020005090200050902000509020088
S31500000230F1C90000050902000509020005090200CE
S31500000240E5E300008DF40100DDCC000064CA000087
S3150000025051EF0100F9F4010099F40100B1F4010035
S3150000026091F4010019DB0000EDDB000009FA000043
S31500000270ED64010064CA000064CA00009DA4000089
S3150000028064CA000064CA000011DC00002D6500008D
S3150000029064CA000064CA000064CA000064CA0000A0
S315000002A064CA000064CA000064CA000064CA000090
S315000002B0FDF4010095F4010069E100003DF501003F
S315000002C064CA000069B0010064CA000064CA000084
S315000002D064CA000064CA000064CA000064CA000060
S315000002E064CA000064CA000064CA00003D0600003B
S315000002F05D06000064CA000064CA000064CA00000B
S3110000030064CA000064CA0000050902007F
S3150000030CF8B500BFF8BC08BC9E467047F8B500BFF0
S3150000031CF8BC08BC9E46704710B5054C237833B91B
S3150000032C044B13B10448AFF300800123237010BDB6
S3150000033C4823002000000000B029040008B5034B38
S3150000034C1BB103490348AFF3008008BD0000000051
S3150000035C4C230020B0290400154B002B08BF134B6F
S3150000036C9D46A3F5803A00218B460F461348144A46
S3150000037C121A35F002FA0F4B002B00D098470E4B91
S3150000038C002B00D098470020002104000D000D48DA
S3150000039C002802D00C48AFF3008035F08BF9200012
S315000003AC290016F03DFB35F071F900BF000008007E
S315000003BCA01A0020000000000000000048230020C6
S315000003CC8861002000000000000000002DE9F047C5
S315000003DCDFF83C9006460C461F464D1E01F10708F9
S315000003EC15F8012F4946012006F04CFE4545F7D17C
S315000003FC054B06491E803246089723460120BDE868
S3150000040CF04706F03FBE00BF9A4B00207D840300E8
S3150000041C6D84030070B5184C0023237001F0B8F9F5
S3150000042C054601F0B5F9022813D02A4613490120D6
S3150000043C06F028FE0F2114230322012013F064F882
S3150000044C13F0BAF9204641F28831BDE8704027F026
S3150000045C63BD01F099F9064601F09AF9084905467B
S3150000046C204627F059FD33462A4606490120BDE8A9
S3150000047C704006F007BE00BFD04D0020E784030095
S3150000048CA08601002485030070B500238CB00422DD
S3150000049C0821032010F052FC012304220921032019
S315000004AC10F04CFC2C4B4FF480721A604FF4007217
S315000004BC1A602A4B01AA03F11006154618685968EA
S315000004CC144603C40833B3422246F7D12846244DBA
S315000004DC10F05EFB05F0E2FF0FCD05AC0FC495E8FE
S315000004EC07004FF4165384E8070001211D480793B3
S315000004FC0FF0E4FB01211C481C4C0FF0DFFB012222
S3150000050C10460023072110F019FC0123184604227B
S3150000051C062110F013FC05A9204610F011FF636F9D
S3150000052C134843F003036367A36F23F4F85323F0D4
S3150000053C1F0343F4206343F00A03A367E36C43F001
S3150000054C0403E3640B4B4FF400625A6042F21071E1
S3150000055C27F0E2FC0CB070BD9CA00046D8800300CE
S3150000056CE880030000350A0000720400000C01400C
S3150000057CD04D002000E100E02DE9F0410C46064686
S3150000058C17460D49DFF834800246012006F07AFD45
S3150000059C25462B1B9F4208DC304600233A46214653
S315000005AC05F016FA0120BDE8F08115F8012B41463D
S315000005BC012006F067FDECE7CA83030077D603003B
S315000005CC07B50B46009204490246012006F05AFD77
S315000005DC03B05DF804FB00BFCB8103002DE9F041AD
S315000005EC0C46064617460D49DFF8348002460120B4
S315000005FC06F048FD25462B1B9F4208DC304602239D
S3150000060C3A46214605F0E4F90120BDE8F08115F8DB
S3150000061C012B4146012006F035FDECE7038403006F
S3150000062C77D603000149012006F02CBD4284030055
S3150000063C064808B5036C836410F0BAFE05F0A6FFF5
S3150000064C18B9BDE8084005F085BF08BD000C01408F
S3150000065C014B1A6C9A647047000C014010B5174A8E
S3150000066C137801331370164B00221A7001F090F8B0
S3150000067C022816D1134B1B78062B0AD1124C208854
S3150000068C05F042FC228811490120BDE8104006F015
S3150000069CF9BC0F49012006F0F5FCBDE8104013F03B
S315000006AC8BB813F089F80B49012006F0EBFC0A48CD
S315000006BC27F026FC094B01221A7010BD6523002079
S315000006CC104E0020662300209A4B00200481030064
S315000006DC2281030053880300184E00206423002057
S315000006EC10B50B4C002323700A4B1B7853B101F049
S315000006FC4FF802280AD020464FF47A61BDE8104024
S3150000070C27F00ABCBDE8104001F042B810BD00BF8E
S3150000071C184E00206423002010B5074B0022012040
S3150000072C1A7011F005F9054A05490346BDE8104053
S3150000073C012006F0A7BC00BF9C4B0020C6A50300F9
S3150000074CC6840300912808B504D100200CF0B4F936
S3150000075C002008BD9028FBD100200CF09BF9F7E790
S3150000076C21B9034B1870034827F0CABB704700BF6A
S3150000077C66230020104E002013B50B4B0090044648
S3150000078C0A4A0B49012006F07DFC24B1094B0022D4
S3150000079C1A7002B010BD084840F6B83102B0BDE878
S315000007AC104027F0B9BB00BF16F003007A83030094
S315000007BC7F830300642300209C4B002007B5002395
S315000007CC0093074A074B0849012006F05BFC0748D3
S315000007DC40F6B83103B05DF804EB27F09DBB00BFC3
S315000007ECC083030016F003007F8303009C4B00209C
S315000007FC07B501200090054B054A064906F042FC58
S3150000080C054B00221A7003B05DF804FB16F00300CA
S3150000081CC08303007F8303006423002008B5054AC8
S3150000082C05490346012006F02DFC044B00221A70E4
S3150000083C08BD00BF16F00300C68403006423002025
S3150000084C70B592B004462DF0E9FE2D4B18802DF0B4
S3150000085CE5FE94F8EE300093224603462949012022
S3150000086C06F010FC94F8621094F834302289019149
S3150000087CE18E00910120244906F004FC2DF0CEFEF9
S3150000088C09AE242208904FF480330021304607939A
S3150000089C34F073FF07AB93E8030004F099FC1B4993
S315000008AC0D90012006F0EEFB194835F061F80F901B
S315000008BC184835F05DF80A90204604F055FD1649A7
S315000008CC0B90012006F0DEFB144804F08DFD0DADF7
S315000008DC0C901349012006F0D5FB0FCD6C460FC4C6
S315000008EC2B68236096E80F0004F0F8FD044605F02B
S315000008FC35FF204612B0BDE8704034F019BF00BF7A
S3150000090C9A4B00202182030093820300CE820300BF
S3150000091C16830300218303002C830300544D00200F
S3150000092C3B83030008B50349012006F0ABFB01200D
S3150000093C08BD00BF508303000149012006F0A2BB8D
S3150000094C348103000149012006F09CBB938303000C
S3150000095C10B507490446012006F094FB0023082233
S3150000096C21464FF6104005F033F8012010BD00BFAC
S3150000097C6E81030008B50349012006F083FB0120B4
S3150000098C08BD00BF8C810300F0B51449144C87B028
S3150000099C0120154606F076FB04F0DCFAB8B16B883C
S315000009AC62689A4211D10F4F07F110060FCE6D46B1
S315000009BC0FC533682B6097E80F0004F063FD0546FE
S315000009CC05F0CCFE284634F0B3FE04F0BDFA94E8EC
S315000009DC070004F0C5FA012007B0F0BDB081030092
S315000009EC5C4B0020A44B002008B5022004F0A0FFAD
S315000009FC044B00221A70022011F018FFBDE80840C3
S31500000A0C04F085BF304E002008B5002004F078FFB6
S31500000A1C044B00221A7015F015F9BDE8084004F0D5
S31500000A2C76BF00BF284E002008B5012004F080FFD9
S31500000A3C044B00221A70012011F0F8FEBDE80840A4
S31500000A4C04F065BF384E002008B5012004F070FF95
S31500000A5C044B00221A70012013F016FFBDE8084063
S31500000A6C04F055BF204E002008B5012027F074FB7A
S31500000A7C024827F0E7FA024B187008BD54850300AC
S31500000A8C404E002008B504F0E9F9012805D0034BC7
S31500000A9C1878BDE8084027F0B9BA08BD404E0020CA
S31500000AAC10B50C1E03D127F02BFA002010BD02DB6B
S31500000ABC27F032FAF9E70220F8E7B1F5000F02D277
S31500000ACC0902FFF7EDBF0220704700002DE9F04147
S31500000ADC9846154B154F1B8800264FF00C0CF4B29C
S31500000AEC9C4202D30220BDE8F0810CFB04F57C1974
S31500000AFC7D5D854205D165888D4202D12579954269
S31500000B0C01D00136EBE701F07FFB0028EAD0414625
S31500000B1CA068FFF7C5FF0028E4D19DF81830637173
S31500000B2C9DF81C30A371DEE7CC1A0020A81A002011
S31500000B3C13B59DF81040CDE9003413460022FFF79B
S31500000B4CC5FF02B010BD07B500230093FFF7F0FFF9
S31500000B5C03B05DF804FB00000E4BF0B51F880E4E7B
S31500000B6C00254FF00C0CEBB2BB4201D30220F0BDBA
S31500000B7C0CFB03F3F418F35C834205D163888B42B8
S31500000B8C02D12379934201D00135ECE7A36800200A
S31500000B9C1870ECE7CC1A0020A81A00200022FFF7E8
S31500000BACDBBF00002DE9F04F1D4699B0FF23022D47
S31500000BBC074688461446229E9DF88CA08DF81A305E
S31500000BCC40F2D38033785A072DD5042D40F2CD80D0
S31500000BDC96F804B0694A002302EBC3015FFA83F965
S31500000BEC0979FF2908D001330A2BF5D1269B002B56
S31500000BFC40F0BF804FF0FF0900230CAA0DF11B013A
S31500000C0C20798DF81B3002F0D5FF78B1BDF858303D
S31500000C1C23809DF81B0004F073FE8DF81900C8B1F3
S31500000C2C19B0BDE8F08F96F802B0D3E7207901F041
S31500000C3C07FBFF28059000F09A80207904F078FED7
S31500000C4C8DF819000028EBD1059B4D4800EB0310DD
S31500000C5C43882380618823884FF6FF72002F08BFD4
S31500000C6C4246CDE9001258465246002107F03CFE9A
S31500000C7C18B1E38843F02003E380269B09960DF117
S31500000C8C190107A8CDE90734ADF82880ADF82A502C
S31500000C9C8DF82C708DF82DA002F0C4FF10B19DF8C4
S31500000CAC1900BDE7304607F03DFDA01D07F028FDF5
S31500000CBC22464146384607F039FF80B2A8422ED369
S31500000CCC9DF894300393BDF8903002930DF11A03FE
S31500000CDCCDE900632246EBB24146384600F0ECFE05
S31500000CEC8DF81900269A9DF8193092B3002B42D133
S31500000CFC9DF81A20FF2A09D0B9F1090F06D81F4B07
S31500000D0C03EBC9010A71269A43F839209DF819306C
S31500000D1C13B9112002F028FF04F0F9FDBFE7BAF170
S31500000D2C000F12D10DF11A03CDE9005322463346BA
S31500000D3C4146384611F066FA2B468DF81900114AD1
S31500000D4C1149022006F09EF9CCE774238DF8193070
S31500000D5CC8E7BA2BDAD1E388DB06D7D50023012006
S31500000D6C8DF8193004F080F8D0E7012058E7A3205D
S31500000D7C56E7B42054E7BA2BEDD0CDE76823002014
S31500000D8C044F00203C8D03004B8D03000023054AC5
S31500000D9C10B51946FF24D018047199500833502BFE
S31500000DACF9D110BD6823002010B586B00881089CC7
S31500000DBC04940024CDE902440124CDE90034134601
S31500000DCC0A4601460320FFF7EDFE06B010BD13B52B
S31500000DDC00240094FFF7E8FF02B010BD2DE9FF4197
S31500000DEC0F469046054688B381B37AB3002669460A
S31500000DFCF0B21FF06BFB044630B99DF80030032BA4
S31500000E0C06D001360A2EF2D1204604B0BDE8F08198
S31500000E1C9DF801202B799A42F3D1BDF802206B88FC
S31500000E2C9A42EED19DF806309DF8050000EB0320A2
S31500000E3C80B29DF804306B71288143463A462946A8
S31500000E4CFFF7C5FF0028DCD00446DDE70224DBE70C
S31500000E5C10B586B0089C04940024CDE90244012404
S31500000E6CCDE9003413460A4601460620FFF79AFEE2
S31500000E7C06B010BD13B500240094FFF7E9FF02B0CD
S31500000E8C10BDF0B502288BB005460E4614461F461B
S31500000E9C0AD106A9F0B21FF019FB98B99DF81930C2
S31500000EAC23719DF81C306371119B04930022109BD7
S31500000EBC0192CDE90222009322463B463146284652
S31500000ECCFFF770FE0BB0F0BD13B500240194049C23
S31500000EDC0094FFF7D6FF02B010BDF0B587B00746F9
S31500000EEC14460E461622002168461D4604F01AFCCE
S31500000EFCADF80C70ADF80A40F6B1082231460DF18A
S31500000F0C010004F0B3FBBDF8143043F00203ADF856
S31500000F1C143000238DF80030BDF83430ADF80E30A7
S31500000F2C0F9ABDF83030BDF83810ADF81030684661
S31500000F3C11F0D0FF07B0F0BD1DB1ADF812500C2367
S31500000F4CE8E74FF6FB739C428CBF082400248DF80F
S31500000F5C0040E1E707B5094A0346108831B9084A4B
S31500000F6C084903B05DF804EB06F0A8B80091064AF0
S31500000F7C064906F0A3F803B05DF804FB6C280020C4
S31500000F8C0ECD0300F68A0300B2CD0300FD8A0300E2
S31500000F9C7FB505460E4628F0B3FB2A4604460346A3
S31500000FAC0C49042006F06EF88CB986B101238DF835
S31500000FBC0E3003230093224603AB36214FF6FC700A
S31500000FCC8DF80C408DF80D5009F014FA04462046A5
S31500000FDC04B070BDDF8A0300FF2810B50C4604D19F
S31500000FEC0420044906F04EF8FE202146BDE81040C8
S31500000FFCFFF7CEBFB88C0300F8B51F460B88064624
S3150000100C0D461446002B69D14A88110448BF6378F3
S3150000101C3349082006F036F86B8848F204029342EE
S3150000102C38D00FD848F20102934244D048F202025B
S3150000103C934248D0132B0ED1A2786378294903EB3F
S3150000104C022229E048F20602934229D038D348F20C
S3150000105C200293422CD03B4622462946304600F0CD
S3150000106CC2FE70B93B4622462946304614F0C4FDF2
S3150000107C6A8848F221039A4203D16178304602F01D
S3150000108CA0FD6B88B3F5004F02D9082002F0D9FDFC
S3150000109C012024E0144A1549082005F0F3FFDAE78D
S315000010AC134A1249082006F009F822791149F3E788
S315000010BC62781149F0E71149082005F0E3FFCAE709
S315000010CC22790F49E8E70F4A0849082005F0F6FF90
S315000010DCA27863780C4903EB0222DDE70020F8BD09
S315000010EC0A8B0300808B03002F8B0300368B0300C7
S315000010FC478B03004D8B03005B8B0300978B030020
S3150000110CB18B0300D38B0300D88B03002DE9F04180
S3150000111C88B006460C4690461F462DF07FFA0EAB5D
S3150000112C0546009302460FAB2146304611F00CF9EA
S3150000113C38B1264A2649022005F0A4FF08B0BDE8BE
S3150000114CF0816188BDF8382023880091022021495E
S3150000115C05F098FF0F9B0493BDF83830ADF81430AA
S3150000116C8DF808600394ADF816508DF818808DF83C
S3150000117C197000F00FFB8DF81A0000F00DFB8DF8BE
S3150000118C1B0021F0C4FF8DF81C0002A802F048FDDC
S3150000119C0028D3D1BDF838300F9A2146284606F0E0
S315000011AC67FE0028CAD1BDF838300F9A214628466A
S315000011BCFFF722FF0028C1D1CDE90050BDF8383029
S315000011CC0F9A3146204607F0B5FBB7E73C8D030076
S315000011DC028A0300188A03002DE9F04F85B0804679
S315000011EC89461446BDF838600F9D9DF840B01F46E1
S315000011FC002B2CD0474A4849042005F05FFF238872
S3150000120C002B78D040F20912934276D0434A4449D7
S3150000121CB3F5827F18BF0A46618800910196414951
S3150000122C042005F04BFF23886BB1022E0BD92B78CB
S3150000123C3D493E4A13F0010F18BF0A46AB783C49AC
S3150000124C042005F03BFF3B49042005F01BFF3A4AFE
S3150000125C0023114602EBC300007958454FD152F8D2
S3150000126C33A0002301EBC302107958454DD1FF2062
S3150000127C1071002241F8332047B9238833B9B4F9E9
S3150000128C0230002B02DB082002F06EFC012002F07B
S3150000129CD8FC9DB12878C30710D510F0040004D0F3
S315000012AC32460121284604F0ECFACDE9017000958E
S315000012BC334622464946404601F0A4F9BAF1000FDE
S315000012CC06D0CDE900573346224649464046D0471C
S315000012DC3B46224649464046CDE9006509F094FA5C
S315000012EC3346224649464046CDE90E5705B0BDE881
S315000012FCF04FFFF749BB114A8EE7114A8CE70133D1
S3150000130C0A2BA7D14FF0000AABE701330A2BA9D160
S3150000131CB2E700BF648A03006C8A0300528A03009A
S3150000132CB98A0300768A0300558A03005D8A030096
S3150000133CA58A030037AE0300682300204B8A0300FE
S3150000134C4F8A03002DE9F0479DF824709DF828A0DC
S3150000135CBDF82080994604460D4616460849094AAA
S3150000136C022005F08FFECDE9099ACDF820803B4688
S3150000137C324629462046BDE8F047FFF72DBF00BF91
S3150000138CFB8903003C8D0300962813B504463BD01D
S3150000139C34D8912843D0942836D0902848D100F0E0
S315000013ACF3F9274B0090274A2749042005F06AFEDB
S315000013BCBC2C2FD12549042005F064FE02F03AFC22
S315000013CC02F039FC02F037FC204612F0FBFB2046FB
S315000013DC16F0ACFB204609F09BFA204612F046F9B3
S315000013EC204613F05BF82046FFF7ACF930B31849EA
S315000013FC042002B0BDE8104005F044BEAF2807D863
S3150000140CAB280AD2982813D1124B0E4A124909E07E
S3150000141CBC28C3E72FF02CFCD4E79128F4D1084B59
S3150000142C084A0E49042005F02DFE07F0AAF8CBE772
S3150000143C22460B49022005F025FEC5E702B010BD79
S3150000144CE98B0300F28B0300F98B0300068C030077
S3150000145C568C03002D8C0300358C0300248C030062
S3150000146C3E8C030013B50F4C002004F049FA236898
S3150000147C6BB101A800F086FB48B923681A789DF871
S3150000148C04309A4203D0012A07D1022B05D103233B
S3150000149C01A8ADF8043029F0B5F804F038FA02B01A
S315000014AC10BD00BF5C24002010B5044604F02DFAD4
S315000014BC204612F013FCBDE8104004F028BA0000D8
S315000014CC0B4B1B6813B504467BB1187801280CD15D
S315000014DC22890092E37A074A074905F0D3FD204694
S315000014EC02B0BDE8104028F0FBBE702002B010BD63
S315000014FC5C240020868C03008B8C03000D4B1B6830
S3150000150C37B505469BB11C780289C37A0A49009205
S3150000151C012C0A4A4FF0010008BF022405F0B2FD67
S3150000152C2946204603B0BDE8304029F007B87020A4
S3150000153C03B030BD5C2400208B8C03007A8303003F
S3150000154C10B5044600F018F9631E04F10F020021D1
S3150000155C13F8010FFF2808BF19709342F8D1002326
S3150000156C237410BD7FB504AB03E9030000239DF87B
S3150000157C0D509DF80E6016491C46D8B201EBC00200
S3150000158C5268EAB99DF80C1000919DF80B309DF845
S3150000159C0A201049042005F091FD25B12A460E4972
S315000015AC042005F08BFD0D4ABDF808300C49002CC3
S315000015BC18BF2246042004B0BDE8704005F062BD99
S315000015CC11F830000133B04208BF1446D5E700BF0E
S315000015DCF48C0300BC8A0300CD8A0300B88A03008E
S315000015ECD18A0300FFF7BCB810B50EF0FEFE01233E
S315000015FC00224FF4E131202014F0EEFC0AF0E0FF5B
S3150000160C04460BF0D1FC224603461249012005F094
S3150000161C39FD0AF0DBFF04460BF0D4FC22460346E8
S3150000162C0D49012005F02EFD0AF0CAFF012303FA2D
S3150000163C00F040F2A17318420BD0084C20780AF047
S3150000164CCBFF20780BF084F82078BDE810400BF027
S3150000165C85B910BD018E0300178E03005D1B00209B
S3150000166C37B50022114601A802F0A6FA00286CD163
S3150000167C26F018FA0346002862D03549354A01206F
S3150000168C05F000FDAD2134480AF080FD04F02EF97A
S3150000169CFFF77CFB00F0E2FB00F08CFB0221084616
S315000016AC06F060F8FFF7DEFE02F040FE2B4B2C4CEA
S315000016BC2C4D41F202021A802B4AFF2313802B4A2F
S315000016CC4FF40040138022F045FB012128480EF010
S315000016DCF5FA00230422092102200FF02FFB002328
S315000016EC0422062101200FF029FB04F039FF04F037
S315000016FC2BFF0BF027FB04F021FF28B104F0B0FF01
S3150000170C04F02EFF04F020FF0BF01CFB26F074FAFD
S3150000171C03F0A4FB012801D000F055FB14F0B2FC39
S3150000172CFFF7B0F92021002003F032F828B1224649
S3150000173C29464FF6FF7005F0C1FC04F0EAF8D8E72D
S3150000174C0C49022005F09EFCA0E7019803B030BDC1
S3150000175CC38D0300648A0300D48D03006A21002024
S3150000176CEF8D0300FD8D03006C2100206E210020FF
S3150000177C00350A00E58D0300024910237F220988F3
S3150000178C0BF026BAA8E3030026F050BB26F05ABB92
S3150000179C26F0CAB82DF06CBA1FB568462CF04CFF73
S315000017ACC8B902A92EF070FF082269460DEB02009B
S315000017BC03F0BFFF10B9002004B010BD02A9012030
S315000017CC2EF062FF082269460DEB020003F0B1FF12
S315000017DC90B90120F0E72CF021FF4FF6FF739842E9
S315000017EC044609D000202EF067FF8442E3D0012086
S315000017FC2EF062FF8442ECD0FF20DDE738B50546BB
S3150000180C04F096F8044698B94FF4A0532A460949B1
S3150000181C082005F037FC4FF4A051284608F05CFD73
S3150000182C054902460446082005F02CFC04F06FF826
S3150000183C204638BD378E0300438E03007FB5054620
S3150000184C04F063F826F0F2FA40B16B88B3F5006F3A
S3150000185C04D1681D02F0B3F9044616E0284602F0DE
S3150000186CEEF9D8B90446E6B2694630461EF02EFEAD
S3150000187C80B99DF800306BB9294630461EF0A8FE9B
S3150000188C0028E9D075280BD08C2404F040F82046AB
S3150000189C04B070BD01340A2CE5D1F5E78D24F4E7CC
S315000018AC8B24F2E738B5054604F02FF8284602F0EB
S315000018BCC4F998B928461EF059FE68B175280CBFB4
S315000018CC8B24882423462A460549082005F0DAFB92
S315000018DC04F01DF8204638BD0446F3E78D24F7E7DF
S315000018EC4D8E030037B502A9FF2301F8013D0446CE
S315000018FC02F05CF918B19DF8070003B030BD094B36
S3150000190C03EB04131D7B21F004FC854201D0FF2060
S3150000191CF3E7204600F0EAFA0028F8D0204600F05B
S3150000192C51FDEAE7044F00202DE9F04107460D462C
S3150000193C02F03EF90646F0B9384600F081FCFF2865
S3150000194C19D00E4C04EB001494F80C8021F0E1FB3A
S3150000195C804510D163882B80A3886B80A3792B716B
S3150000196C0121384600F034FD31466871384600F0E6
S3150000197C2FFD0126A8713046BDE8F081044F0020EA
S3150000198CF8B504460E46154600F05AFCFF2802D15F
S3150000199C4FF6FF70F8BD0B4B03EB0010077B21F0E5
S315000019ACB8FB8742F4D146B901222946204600F0FD
S315000019BC35FD0028ECD00088ECE7012EE8D100229A
S315000019CCF3E700BF044F002010B5044603F09DFF5B
S315000019DC2046FFF7D9FCBDE8104003F098BF000085
S315000019EC37B50C4B1B681C5C94420D460AD9009209
S315000019FC2346094A0949042005F044FB00242046E5
S31500001A0C03B030BD0022014600922346284626F03C
S31500001A1CD5FDF4E7DC1B0020648A0300978D0300D8
S31500001A2CF0B599B0144603AD0F46064603F06DFFAC
S31500001A3C204652222946FFF7D3FF84B28CB10DF112
S31500001A4C0A002CF0DBFD0DF10B002CF0DFFD9DF9EF
S31500001A5C0B309DF80A20CDE9004539463046FFF794
S31500001A6C55FB03F054FF19B0F0BD2DE9F0439BB0C4
S31500001A7C14469DF88850894680461F4603F045FF5C
S31500001A8C2946204610F01CFC80B905AE5222314680
S31500001A9C3846FFF7A5FF48B180B20090CDE9016743
S31500001AAC2B46224649464046FFF796FB03F02FFF8E
S31500001ABC1BB0BDE8F08300002DE9F7431C46074632
S31500001ACC0E4601202649BDF830809DF83490154607
S31500001ADC1A4605F0D7FA21460A9826F097FDFF28F4
S31500001AEC04463AD00B9B1870062F34D8DFE807F063
S31500001AFC040404121929220003462A4631463846A4
S31500001B0C2CF0F2FF0546204626F024FC284603B0AE
S31500001B1CBDE8F0830C220346114628462CF0B6FF8E
S31500001B2CF0E7EA7A0346CDE90089114628462CF0FF
S31500001B3C6FFFE7E703460C22294630462CF00EFFD2
S31500001B4CE0E70190EB7A00934A462B463146404635
S31500001B5C2CF028FFD6E70225D5E71825D6E700BFD7
S31500001B6CAF8D03000822014903F080BD6D60002093
S31500001B7C10B50446084625F0EBFE2046BDE810409D
S31500001B8C27F03CBF27F03ABF052070470620704768
S31500001B9C0A20704709F0CEB809F03EB809F036B8FD
S31500001BAC014B1878704700BFF41B00204B20704780
S31500001BBC024B18685968FFF7D5BC00BF7E25040098
S31500001BCC13B5044603F0A1FE0DF106002CF016FD2C
S31500001BDC0DF107002CF01AFD9DF907209DF8061053
S31500001BEC20460FF0C5FF30B99DF907209DF8061069
S31500001BFC204614F049F903F08AFE02B010BD38B540
S31500001C0C04460D4603F081FE2946204610F096F94F
S31500001C1C18B92946204614F047F9BDE8384003F0B8
S31500001C2C76BE38B504460D4603F06FFE29462046AF
S31500001C3C10F008F818B92946204614F013F9BDE837
S31500001C4C384003F064BE38B504460D4603F05DFE1D
S31500001C5C2946204610F02CF818B92946204612F0D1
S31500001C6C91F8BDE8384003F052BE704700F0D0B88A
S31500001C7C10B5044C22780AB118F0F2F8012323703F
S31500001C8C10BD00BF5E1B002000207047014B187072
S31500001C9C00207047B82300202DE9F341224B019315
S31500001CAC1646044640B13AB1002301AA9D5C8D420A
S31500001CBC33D00133042BF9D1022002B0BDE8F081F8
S31500001CCCE35C93FAA3F30146180E03F0B9F8434606
S31500001CDC03F10108DBB2BB42F2DBC2B292FAA2F20A
S31500001CECC0F30F2393FAA3F3100E1B0E03EB002382
S31500001CFC6219DB439BB212F8020CD9B2884211D19D
S31500001D0C12F8012CB2EB132F0CD132462146284681
S31500001D1C02B0BDE8F04120F037BD00234FF6FF704E
S31500001D2C8F1ED5E7BD20C8E7080A0E122DE9F04133
S31500001D3C1D4686B01E4B1646074603A888461C78D9
S31500001D4C1EF052FF16F0FD0F2FD030B9BDF80C3037
S31500001D5C990702D5032E08BF032433462A4641466B
S31500001D6C38460094FEF732FB33462A46414638463F
S31500001D7C009413F099FFFFF707FD854203D029461F
S31500001D8C384608F005FF022C0BD0FFF7FDFCA842E5
S31500001D9C07D0B21E5342534129460022384608F05A
S31500001DAC41FF204606B0BDE8F0810324D5E700BF0D
S31500001DBCB823002008B5FEF767FB06F0A7FBBDE8C5
S31500001DCC084011F051BC08B501F0F8FE06F0D8FB3E
S31500001DDC10F0D4FC10F0CCFDBDE8084012F056BD56
S31500001DEC704701F01BBFF8B504460D4616461F4654
S31500001DFC01F01AFF40B93B4632462946204609F007
S31500001E0C85FE00F00100F8BD0120FAE700207047BE
S31500001E1C38B504460D4601F019FF2946204611F047
S31500001E2C3FFC29462046BDE8384014F02BBEFEF791
S31500001E3CA3BBFEF7D3BB000010B5074A0123332B17
S31500001E4C194601D1002006E00233D41814F8034CCD
S31500001E5C8442F4D1505C10BD638E0300F0B587B09C
S31500001E6C40F20123194A1A49ADF80030194B1A4DA4
S31500001E7C0220CDE904230870002301221749ADF88E
S31500001E8C0430ADF80820ADF80C300DF1100E0DF144
S31500001E9C140C01AF02AE03AC10461DF803200A70F9
S31500001EAC3EF813204A803CF813208A80DA5D8A714A
S31500001EBCF25C487305EBC2028A601A5D0A73103134
S31500001ECC0BB107B0F0BD0123E7E700BF0401040125
S31500001EDCB923002004011008AC920300044F002023
S31500001EEC014B1878704700BFB9230020034B03EB56
S31500001EFC0010407B00F00100704700BF044F00202B
S31500001F0C413803288CBF0020012070474138012836
S31500001F1C8CBF002001207047433801288CBF00205D
S31500001F2C0120704700207047064BC01A064B8010E4
S31500001F3C4343103B9BB2022B41F2A20028BF002068
S31500001F4C704700BF20900300CDCCCCCC0388B3F5F2
S31500001F5C7C4F01D3FFF7E8BF0846FFF7E3BF10B588
S31500001F6C4A880488A2420DD1037B0C79234009D000
S31500001F7CB2F57C4F08D3FFF7D7FF0B891B1A5842D3
S31500001F8C584110BD0020FCE70120FAE738B50D8852
S31500001F9CD488A5420AD10388B3F57C4F08D2FFF743
S31500001FACD5FF13891B1A5842584138BD0020FCE74F
S31500001FBC0120FAE72DE9F04F8BB04FF0000A0193A0
S31500001FCC9DF850300593714BDFF8D0911B78049136
S31500001FDC8046154608935746089A5FFA8AF39A4242
S31500001FEC01D8862063E099F800300293D9F80830BE
S31500001FFC0393029A98F80030934240F0BF8099F808
S3150000200C0D30D80709D5039B1B7907934FF0000BAE
S3150000201C079A5FFA8BF39A4204D80AF1010A09F17E
S3150000202C1009D9E7039B1E68142303FB0B66414674
S3150000203C3046FFF794FF002800F09C803389069306
S3150000204C002306999AB2914202D80BF1010BDFE7F5
S3150000205C746809930C2202FB03442146424630461F
S3150000206CFFF794FF2279099B00287BD0049B03B1D0
S3150000207C1C6091061ED4464809E01A79920642BFA6
S3150000208CD8783F18BFB20C339C42F6D84148059B12
S3150000209C074493B121463046FFF758FF2388B8F81A
S315000020AC02100246029801F064FD60BB7E200BB064
S315000020BCBDE8F08F0027384BE6E7002D35D02146DA
S315000020CC3046FFF743FF2388B8F802100246029801
S315000020DC01F04DFD0028E9D0DFF8C490284623799D
S315000020ECDB0615D521463046FFF730FF98F8006021
S315000020FCB8F802101495034622463046CC460BB06F
S3150000210CBDE8F04F60473846DFF898902F46E6E773
S3150000211C019AA3785AB9E278A3F14101012908D8AA
S3150000212C013AD2B2394606F02DFD0020BFE7019ADE
S3150000213CF2E7433B012B05D8023A92B2394606F038
S3150000214C3BFDF2E7059B2BB9019B1BB1E37801998B
S3150000215C8B4218D8394617B903F0E4FAE5E703F0D1
S3150000216C85FAE2E712F0300F02BFE0783F18BFB2F3
S3150000217C013366E770890744BFB266E7039BD888CC
S3150000218C0744BFB249E7892091E700BFB923002075
S3150000219C244F0020444E0020DC8E0300044F002008
S315000021ACAD3B0000B13B00002DE9F84390F80480EC
S315000021BC06461F4600254FF01409EBB2984501D888
S315000021CC002416E009FB05F033681C181B5A8B42D9
S315000021DC17D12AB1802A0FD194F90C00002810DAF5
S315000021ECB3F57C4F05D32046FFF79EFEB84200D0D0
S315000021FC3FB92046BDE8F883402A02D1207B400631
S3150000220CEED40135D9E7000030B50B4B0B4A1C78E0
S3150000221C0023D9B2A14201D3002030BD19460133A7
S3150000222C02EB031515F8105C8542F2D102EB011294
S3150000223C507B00F00100F0E7B9230020044F00208A
S3150000224C70B50A4B0A491D780023DAB2AA4202D3AA
S3150000225CFF22104670BD1C016618645C844202D1D4
S3150000226C747BE407F5D40133EFE700BFB9230020F4
S3150000227C044F00202DE9F0410D4616461F46FFF788
S3150000228CDFFFFF280AD0074C04EB00103B46324612
S3150000229C29468068BDE8F041FFF786BF0020BDE8FF
S315000022ACF08100BF044F002008B513460022FFF74B
S315000022BCE1FF003018BF012008BD08B513464022C7
S315000022CCFFF7D8FF003018BF012008BD08B513462C
S315000022DC8022FFF7CFFF003018BF012008BD08B5DC
S315000022EC40220023FFF7C6FF003018BF012008BDAF
S315000022FC08B580220023FFF7BDFF003018BF012070
S3150000230C08BD000030B5094B094C19780023DAB228
S3150000231C8A4201D3FF2206E0013304EB031515F8BC
S3150000232C105C8542F3D1104630BD00BFB9230020A6
S3150000233C044F00202DE9F0410D4616461F46FFF7C7
S3150000234CE1FF054C04EB00103B46324629468068FB
S3150000235CBDE8F041FFF728BF044F00202DE9F84FE8
S3150000236C0746884691469A46FFF784FFE0B10F4B25
S3150000237CDFF83CB01E7800252C46EBB2B34202D3F4
S3150000238C2046BDE8F88F01350BEB051313F8100C3E
S3150000239C8742F5D053464A464146FFF7CBFF002805
S315000023AC18BF0134E4B2E8E7FF24E9E7B9230020BB
S315000023BC044F002013464022FFF7D0BF0022FFF740
S315000023CCF9BF0000014B0001185C7047044F002058
S315000023DC70B50D46FFF734FFFF2818D00E4B03EBF4
S315000023EC001082689AB10023117918461426DCB2C3
S315000023FCA14200D870BD146806FB0344247B45B18A
S3150000240C14F0400F1CBF0130C0B20133EFE70020BF
S3150000241CF0E714F0800FF5E7044F00202DE9F041AA
S3150000242C0F469046FFF70CFFFF280BD0104B03EB23
S3150000243C00100023856829791C464FF0140CDAB27B
S3150000244C914202D80020BDE8F08128680CFB0300FD
S3150000245C067BB8F1000F08D016F0400F03D0BC4233
S3150000246CF1D00134E4B20133E9E716F0800FF5E759
S3150000247C044F00202DE9F04F89B0074620F047FEA7
S3150000248C3D4B1B780293824600244FF00C0B029BAB
S3150000249C9C422ED2FF2F05D03846FFF7D1FEFF28DF
S315000024AC044626D0FF2F354E4FEA041360D1F2189E
S315000024BC127B52455CD00134E4B2E8E71B68142267
S315000024CC02FB05352B89B3F5967F01D90AF03AFC48
S315000024DC4FF000092A891FFA89F39A420CD808F1A1
S315000024EC0108B3681A795FFA88F5AA42E6D8FF2F75
S315000024FCE1D009B0BDE8F08F1FFA89F168680BFBD3
S3150000250C01F14218137913F0100F29D196F800C077
S3150000251C8DF814C0B5F800C0ADF816C013F0400F16
S3150000252C0CBF4FF0400C4FF0800C8DF818C0415A80
S3150000253CADF81A10284611460393FFF707FD039BC7
S3150000254CADF81C005B07D1780DD50229926800D92D
S3150000255C1268012300930023194605A8FFF72AFDEC
S3150000256C09F10109B6E7022994BF08329268F0E72F
S3150000257C4FF000081E44B4E7B9230020044F002096
S3150000258C0021FFF777BF10B501210446FFF772FF54
S3150000259C2046BDE81040FFF723BC704710B5047BFE
S315000025AC14EA010310D0002201238B4203D30369E2
S315000025BC53F8220010BD1C4218BF01324FEA4303E8
S315000025CC18BFD2B2DBB2F0E71846F3E7F8B51646F9
S315000025DC1F469DF81820BDF81C300546FFF74AFE2D
S315000025EC78B10421FFF7DAFF044650B1284603F010
S315000025FC9FF93A4631462846A047BDE8F84003F015
S3150000260C86B9F8BD2DE9F74F0C9D9DF834B01F46E1
S3150000261C81468A46BDF83830144612B30DB307B35B
S3150000262C92F804802A78618812F0080F14BF4022B1
S3150000263C80224046FFF71EFE98B10821FFF7AEFF39
S3150000264C064670B1404603F073F9CDE9005B3B4694
S3150000265C224651464846B04703B0BDE8F04F03F05A
S3150000266C56B903B0BDE8F08FF8B5BDF8185017464B
S3150000267C1A462B460446FFF7FDFDE0B175B902215B
S3150000268CFFF78CFF0546B0B1204603F051F93946E9
S3150000269C2046A847BDE8F84003F039B91021FFF7EA
S315000026AC7DFF064638B1204603F042F92A463946E4
S315000026BC2046B047EEE7F8BD73B5BDF81840164690
S315000026CC1A4623460546FFF7D5FDB8B1C4B92021F5
S315000026DCFFF764FF044670B1284603F029F9099BFD
S315000026EC00939DF81C209DF8203031462846A047C3
S315000026FC044603F00CF9204602B070BD8624FAE7B6
S3150000270C0024F8E72DE9F04186680446007803F0CA
S3150000271C0FF9002514273279EBB29A4203D8BDE89B
S3150000272CF04103F0F4B87B4332682078D15A02EBBF
S3150000273C030801F024FA01214046FFF72FFF034658
S3150000274C08B1207898470135E5E7000070B5084DCB
S3150000275C084E00242B78E0B2834200D870BD06EBFD
S3150000276C0010437BDB0701D5FFF7CCFF0134F1E703
S3150000277CB9230020044F00202DE9F0411E4B0646DC
S3150000278C1E480C4619780023DAB28A4203D3002479
S3150000279C2046BDE8F0815A1C00EB021515F8105CBA
S315000027ACB54201D01346EFE700EB0310437B03F071
S315000027BC01022CB143F00103437342B10124E7E754
S315000027CC4473002AFAD005464FF014080DE0FFF7C3
S315000027DC99FFDDE71B6808FB04F41A19195B127BD9
S315000027EC3046D209FEF7B8F93C46AB681A79671C35
S315000027FCE4B2A242EED8E1E7B9230020044F002050
S3150000280C10B5094B094AC01AC0F38F0000239C5A15
S3150000281C844202EB030101D1488810BD0433302BEE
S3150000282CF5D10020F9E700BF88910300968E0300CE
S3150000283C2DE9F04F85B00F469346BDF8382001922E
S3150000284C9DF840107C7D88B3ACB3012C18BF0424D2
S3150000285C9DF84480DFF88890002635461FFA88F8E4
S3150000286C36F80900584519D109EB060090F803E033
S3150000287C1EEA040F12D090F802A08A450ED31EF061
S3150000288C100FFA7B19D04AB1CDE90231FFF7B8FF28
S3150000289CB7F810C08445DDE9023110D00436B6F520
S315000028AC927FDDD1012005B0BDE8F08F002C14BF5E
S315000028BC04240824CCE70224CAE7002AEED1A84552
S315000028CC0BD0019AAA4208D903F805A00F9A1088D2
S315000028DC013501301080ADB2E0E70020E3E700BF20
S315000028EC889103002DE9F04F89B01D46BDF848408C
S315000028FC9DF850300193934623462A4607460E46CA
S3150000290CFFF7B8FC8DF81470ADF816608DF81850FA
S3150000291CADF81AB0ADF81C40814618B9012009B0C3
S3150000292CBDE8F08F05A9FFF71AFB0028F6D09DF835
S3150000293C4C3000259BB22E462F462C46029336E091
S3150000294C0C231FFA85F8B9F8002003FB08F8D9F810
S3150000295C0430B2F57C4F03EB080A1AD333F808009F
S3150000296C58452ED3029BA3422DD902F027FF9AF885
S3150000297C020002F00FFF019B43B19AF8043013F0EA
S3150000298C010F0CBF0520072002F004FF0134A4B28E
S3150000299C19E033F80820ADF81A20514605AA484626
S315000029AC0393FFF7F3FA039B0028D7D10135B9F847
S315000029BC0820ABB29A42C3D83C44A31B5842584198
S315000029CCADE70137BFB20136B6B2EFE72DE9F04FEE
S315000029DC8FB098469DF8703006930023BDF8609032
S315000029EC8DF82C00ADF82E10ADF83220009305466C
S315000029FC0E46174608A91A460BA80893199C9DF86B
S31500002A0C68B09DF86CA08DF83080ADF83490FFF767
S31500002A1CD1FA089B002B00F09880BAF1000F07D171
S31500002A2C9A785A4540F094801A79D10740F19380F0
S31500002A3C1A79520735D59A685168926809910A92A3
S31500002A4C987806F035F9089B059093F803A0BAF12F
S31500002A5C020F17D803465246214609A806F0CDF8B0
S31500002A6C059B0790524621460AA806F0C6F8079B16
S31500002A7C012B01D0013014D14FF0870A50460FB00C
S31500002A8CBDE8F08F059B09985246214606F0B5F82D
S31500002A9C0128F1D0059B0A985246214606F0ADF85E
S31500002AACE8E7069B002B59D1089B0394DB78CDF8FD
S31500002ABC0090CDE901B33A4643463146284601F02B
S31500002ACCA9F882460028D9D1089B0394DB78CDF867
S31500002ADC0090CDE901B33A46434631462846FFF706
S31500002AECEBFD82460028C9D101230093069B2246A2
S31500002AFC19460BA8FFF75EFA82460028BED1089B42
S31500002B0C324629462046FFF748FD43463A463146AB
S31500002B1C2846CDE901B4CDF80090FDF783FD089B5E
S31500002B2C0394DB78CDF80090CDE901B33A464346E1
S31500002B3C3146284601F06DF8CDF8009043463A46EA
S31500002B4C31462846FFF790FD98E74FF0860A95E741
S31500002B5C4FF08D0A92E74FF0880A8FE74FF0000A84
S31500002B6C8CE72DE9F04786B007460F9D9DF840602F
S31500002B7CBDF838400094CDE90156884691469A46F0
S31500002B8C00F0F3FF98B102280ED84FF0000304931F
S31500002B9C08BF0123CDE90263CDE9004553464A46F9
S31500002BAC41463846FFF712FF06B0BDE8F087012014
S31500002BBCFAE730B587B000240125CDE903549DF81A
S31500002BCC2C5002950A9DCDE90045FFF7FFFE07B094
S31500002BDC30BD30B587B000240125CDE903549DF8EE
S31500002BEC28500094CDE901354023FFF7EFFE07B0DE
S31500002BFC30BD10B586B04FF0010C0024CDE9034C66
S31500002C0C9DF828400294099C0194BDF8204000943C
S31500002C1CFFF7DCFE06B010BD30B587B000258DF889
S31500002C2C1030BDF828308DF80C00ADF80E10ADF84C
S31500002C3C1220ADF814300095BDF830300B9A0D9C6F
S31500002C4C029502A903A8FFF7B5F918B914B1029BAE
S31500002C5C9B78237007B030BD1FB5089C03949DF874
S31500002C6C1C400294069C019400240094FFF7D4FFA8
S31500002C7C04B010BD2DE9F04FDFF8CCB099B04FF091
S31500002C8C0008FFF72DF95FFA88F5A84202D819B0AB
S31500002C9CBDE8F08F2D010BEB05034FF000090493F3
S31500002CAC0BEB05035FFA89F49B681A79A24202D8EA
S31500002CBC08F10108E5E71B68142202FB0434002620
S31500002CCC2289B3B29A4202D809F10109E8E70C232A
S31500002CDC1FFA86FA03FB0AFA6368059303EB0A07E5
S31500002CEC0AF030F839462046FFF730F9049B218864
S31500002CFC93F800C0059B33F80A203B794FF0000E81
S31500002D0C13F0400F0DF11C0A4FF04103CDE9023EC2
S31500002D1CCDE9000A14BF802340236046FFF77CFFF1
S31500002D2C862806D0B878FFF7F1F820B1504602F0A5
S31500002D3CCDFD0136C4E7B878FFF7EEF80028F8D0D9
S31500002D4C504602F0C8FDF4E7044F0020F0B597B0EA
S31500002D5C1646BDF87470042F48D90DF1130403946C
S31500002D6C4124029405ADBDF8704000940195FFF71F
S31500002D7C53FF0446A0BB9DF81300A0F14103012BA1
S31500002D8C21D8284602F0A2FD0130C4B2E31CBB4296
S31500002D9C2CDA304602F012FD154E002002F0FAFC39
S31500002DAC9DF8130002F0F6FC33881A19FE2A1DDC76
S31500002DBC1048A4B222461844294602F057FC308823
S31500002DCC0444348012E0A0F14303012B04D82846B6
S31500002DDC02F081FD0230D8E7FFF72EF80446D5E75E
S31500002DEC304602F0EBFC204602F0D4FC17B0F0BDE6
S31500002DFC7C4F00208C4F002010B500221346815CBE
S31500002E0CA1F13004092C0AD8303B032A0B4402F1F9
S31500002E1C010218BF1B01042AF1D1184610BDA1F1FD
S31500002E2C4104052C01D8373BEFE7A1F16104052CD1
S31500002E3C01D8573BE9E70023EFE700002DE9F84FEF
S31500002E4C0A688B6880465D1CD018D35C222B8B4697
S31500002E5C154440F0CE804C682E460023B11AA14290
S31500002E6C80F0C780317822291DD1C3F10103301AB5
S31500002E7CDBF81020184490478146002800F0B980F2
S31500002E8C04464FF00C0AB54217D3002323701023C7
S31500002E9CC8E90339DBF80030F61A0136CBF80860BE
S31500002EAC0120BDE8F88F5C2905D10136B11A8C4298
S31500002EBC40F29F8001330136D0E72B785C2B03D090
S31500002ECC237001350134DEE7721B002A08DD6B78AE
S31500002EDC662B67D016D82F2B12D00CD8222B0FD0DE
S31500002EECDBF8143048469847DBF80000281ACBF874
S31500002EFC08000020D5E75C2B02D0622BF0D108230A
S31500002F0C237051E0722B53D003D86E2BE8D10A23D1
S31500002F1CF6E7742B4FD0752BE2D1052AE0DDA81C01
S31500002F2CFFF76AFFA0F55C43B3F5806F0746D7D36E
S31500002F3CA0F55843B3F5806F40D2AB1DF31A052BA1
S31500002F4CCEDDAB795C2BCBD1EB79752BC8D105F1EA
S31500002F5C0800FFF751FFA0F55C43B3F5806FBFD2B5
S31500002F6C264BC0F3090003EA8727384300F5803760
S31500002F7C0C23B7F5803F30D3214A9742B0D84FF097
S31500002F8CF00C042000F1FF3E54FA8EFEA645FAB270
S31500002F9C27D1012814BF42EA0C0202F07F022270EC
S31500002FAC044403E084F800A0013402231D446AE7BC
S31500002FBC4FF00D03A4E74FF00903A1E77F284FF06C
S31500002FCC060306D9B0F5006FD3D24FF0C00C022021
S31500002FDCD8E74FF0000C0120D4E74FF0E00C0320AB
S31500002FECD0E702F03F0262F07F020EF80129BF091A
S31500002FFCCCE7002D7FF478AF284652E700FC0F0093
S3150000300CFFFF100010B540B1016871B142688368CA
S3150000301C934206D2CC5C202C00D910BD01338360C0
S3150000302CF5E7FAD1013A8260F7E70846F5E710B101
S3150000303C806800B101B9704701390068F9E72DE9DC
S3150000304CF0470F4618B900242046BDE8F087002942
S3150000305CF9D08468002A3ED1002CF4D0A66ABEB3FF
S3150000306CBE4241D007F1FF3A1AF8018F32F04AFB03
S3150000307C4044B146437816F8015B03F00303012B79
S3150000308C08BF08F1200832F03DFB28442B46427855
S3150000309C9AF8005002F00302012A08BF2033984523
S315000030AC26D032F02FFB284499F80060437803F0C1
S315000030BC0303012B08BF203532F024FB3044334682
S315000030CC427802F00302012A08BF20339D420BD03E
S315000030DC2468C1E72468002CB5D0A16A21B1384612
S315000030EC32F034FC0028F5D1A36A002BACD1AAE748
S315000030FC002DB9D1F8E710B50346302098470446A1
S3150000310C18B13022002132F038FB204610BD0000E9
S3150000311C70B50F4D044604B970BDE3682668D90531
S3150000312C03D4A06808B1FFF7F3FFE368DA0503D40C
S3150000313C206908B16B689847E3689B0503D4A06ABD
S3150000314C08B16B68984720466B6898473446E2E7A7
S3150000315C601B00202DE9F047064692B00C4609B9D3
S3150000316C002023E00F68002FFAD08D68D1F8048078
S3150000317C05F10409C1450BD80422AE49781932F081
S3150000318C1AFC28B90423F360C4F8089001200DE05A
S3150000319C05F1050AD0450CD30522A749781932F05A
S315000031AC0AFC30B90120F060C4F808A012B0BDE8E2
S315000031BCF087C1450CD80422A049781932F0FBFBE4
S315000031CC30B90223F36001220023C6E90623DBE7AC
S315000031DC4545C5D27B5D222B07EB050104D1214663
S315000031EC3046FFF72BFEE1E72D2B03D0A3F130027F
S315000031FC092A51D800230193A8EB050502AFCA5C36
S3150000320C392A31D8302A05D22D2A03D02E2A01D0BC
S3150000321C2B2A05D1FA5401333F2B01D0AB42EED108
S3150000322C12AA1344002501A9384603F8405C33F072
S3150000323CFDF9DDF804A0BA458046894690D0C6E96A
S3150000324C08897AA3D3E9002332F022F880B16FF013
S3150000325C00420023C6E906230823F360A368AAEB01
S3150000326C07071F44A76091E7452AD3D0652AD0E704
S3150000327C0022734B4046494632F000F820B14FF01D
S3150000328C00424FF0FF33E5E74946404632F014F86A
S3150000329CC117C6E90601DFE75B2B54D1E368B3F52A
S315000032AC7A7FBFF45DAF0133E3607B5D5B2B7FF40C
S315000032BC57AF0135A5602046FFF7A4FED4E90123DC
S315000032CC93425DD22268D25C5D2A01D1002527E0AB
S315000032DC013B4FF00008A36045462069FFF70BFF42
S315000032EC074648B335B3C8F80000C0F80480A36895
S315000032FC0133A3602046FFF785FE21463846FFF7CB
S3150000330C29FFE0B12046FFF77DFED4E90123934265
S3150000331C15D22268D35C2C2BB846DED05D2B0ED191
S3150000332CE368013BE3602023C6E90253A36801333B
S3150000333CA3602BE70546DAE7002D3FF411AF2846CC
S3150000334CFFF7E6FE0CE77B2B7FF40AAFE368B3F5D9
S3150000335C7A7FBFF405AF0133E3607B5D7B2B7FF493
S3150000336CFFAE0135A5602046FFF74CFED4E90123DC
S3150000337C934205D22268D25C7D2A04D1002746E00E
S3150000338C013BA360ECE64FF00008013BA360474607
S3150000339CC1462069FFF7AFFE0546002840D0002F36
S315000033AC3CD0C8F80000C0F80480A3680133A360C1
S315000033BC2046FFF727FE21462846FFF73FFD90B330
S315000033CC2046FFF71FFE2B69AB62D4E9012393421B
S315000033DCC5F8109027D22268D25C3A2A23D1013341
S315000033ECA3602046FFF70EFE21462846FFF7B2FEE5
S315000033FCC8B12046FFF706FED4E90123934212D248
S3150000340C2268D35C2C2BA846C3D07D2B0BD1E3684A
S3150000341C013BE3604023C6E9027387E70746C4E72E
S3150000342C002F3FF49DAE38468AE700BF0000C0FF70
S3150000343CFFFFDF41C0920300C5920300CB9203004D
S3150000344C0000E0C12DE9F043334F89B006468846AB
S3150000345C914600211C2201A8002432F08EF9C7E9FE
S3150000346C0044002E4DD03046019632F09CFA2B4B80
S3150000347C0130029093E8070008AB03E90700FFF759
S3150000348C3AFE054678B3019870B1039B5BB9029B73
S3150000349C042B06D90322224932F08DFA08B90323EC
S315000034AC039301A800E02046FFF7ACFD0146284631
S315000034BCFFF750FEA0B1B9F1000F06D1B8F1000F1D
S315000034CC21D1284609B0BDE8F08301A8FFF79AFD83
S315000034DCDDE90223934203D2019AD35C002BEDD093
S315000034EC2846FFF715FEDDE90223934201D382B18C
S315000034FC531EB8F1000F02D0F218C8F80020C7E925
S3150000350C00630025DDE7019B039A1344C8F80030DD
S3150000351CD7E71346EDE700BFBC230020601B002055
S3150000352CBC92030000221146FFF78CBF10B18368D2
S3150000353C002003B9704701301B68FAE7002901DB4C
S3150000354CFFF775BD002070470022FFF778BD0122FA
S3150000355CFFF775BD38B5C37B05460BB1832038BD67
S3150000356CC47C2CB906F0ECFF20B9EB7B002BF5D113
S3150000357C8120F4E72046F2E738B5C37B05460BB14C
S3150000358C832038BDC47C6CB9017D82898B1C9A4220
S3150000359C0AD3806802F075F90EF04EFA30B9EB7B5F
S315000035AC002BEDD18120ECE78020EAE72046E8E706
S315000035BCC37B10B504460BB1832010BDC37C1BB175
S315000035CC012B10D08120F8E7017D82898B1C9A4251
S315000035DC0CD3806802F055F90FF046F940B9E37B3D
S315000035EC002BE9D1EEE70FF057F9F7E78020E4E777
S315000035FC0020E2E7C37B2DE9F041044613B183209A
S3150000360CBDE8F081C37C032B18D8DFE803F0021960
S3150000361C3E4D017D8289CB1C9A4201D28020EFE778
S3150000362C8068455C013102F02CF9014628460FF002
S3150000363C09F8002847D1E37B002BE0D18120DFE796
S3150000364C037D8289591C8A42E8D39DB2691C881C69
S3150000365C8242E3D3A068C65C02F013F90746A06861
S3150000366CB4F80C800335284402F030F928440130B4
S3150000367C8045D3D3A289A068294602F009F93946B8
S3150000368C024630460EF0E4FFD3E7007DA289831C88
S3150000369C9A42C3D383B2A5689A1C01332A44E95CC7
S315000036AC285C0EF0DBFFC4E7017D8289CB1C9A42B5
S315000036BCB4D38068455C013102F0E3F80146284634
S315000036CC0EF0D2FFB5E700209AE72DE9F34790F804
S315000036DC0FA00446BAF1000F40F03A81C37C042BCC
S315000036EC00F0C6800AD8012B67D047D3022B00F016
S315000036FC9D80032B00F0AD80812045E0402B00F02F
S3150000370CCD8023D8062BF7D1037D8289591C8A429A
S3150000371C39D39DB2A91C8A4205F1010733D3881C03
S3150000372C824230D3A068C65CC75D02F0AAF8024696
S3150000373C002E40F0B080A1682B1D0535CB5C0D44E6
S3150000374C00953946304612F0FBFB2DE0412B00F07C
S3150000375CB980422BD0D1037D8289191D8A4212D39E
S3150000376C9DB28068691CC65C02F08BF80335A368B1
S3150000377C01465A5D304614F043FA15E0037D828902
S3150000378C191D8A4203D2802002B0BDE8F0879DB293
S3150000379C8068691CC65C02F074F80335A3680146A0
S315000037AC5A5D304612F0B0FB002840F0D380E37B24
S315000037BC002B14BF83208120E6E7037D8289591CE8
S315000037CC8A42E0D39DB2691C881C8242DBD3A06876
S315000037DCC65C02F056F8A289291D8A42074605F1F5
S315000037EC0303D0D3A06810F80380DEB902F049F8C1
S315000037FC06352946A2898146A06802F049F8824618
S3150000380CA068284402F062F801300544A06810FA5A
S3150000381C85F5CDE900A54B4642463946304612F0B1
S3150000382CC9FBC1E74FF6FF795546F2E7037D82895E
S3150000383C191D8A42A7D39DB28068691CC65C02F02A
S3150000384C20F80335A36801465A5D304612F066FB34
S3150000385CAAE7017D8289CB1C9A4294D38068455C89
S3150000386C013102F00EF80146284612F05DFB9BE78B
S3150000387C037D8289191D8A4285D39DB28068691C95
S3150000388CC65C01F0FEFF0335A36801465A5D30465F
S3150000389C12F050FB88E7FF23002551E7037D828950
S315000038AC191D8A42FFF46FAF9DB28068691CC65C15
S315000038BC01F0E7FF0335A36801465A5D304614F064
S315000038CC83F971E7037D8289591C8A42FFF45BAF49
S315000038DC9DB2691C881C8242FFF455AFA068C65C79
S315000038EC01F0CFFFA289291D8A42074605F1030381
S315000038FCFFF449AF881C8242FFF445AFA06810F86C
S3150000390C038001F0BEFF8146A068B4F80CA0063512
S3150000391C284401F0DBFF284401308245FFF433AF25
S3150000392CA289A068294601F0B3FF8246A068284404
S3150000393C01F0CCFF01300544A06810FA85F5CDE9FD
S3150000394C00A54B4642463946304614F047F92BE75C
S3150000395C832019E7002017E7C37B2DE9F7430446BC
S3150000396C1BB1832003B0BDE8F083C37C412B33D05D
S3150000397C422B42D0402B2DD1037D828903F11001BD
S3150000398C8A424BD39DB2806805F10801C61801F036
S3150000399C78FF05F10A030746A068A28910F8038090
S315000039AC05F10B0101F06DFF05F10D018146A289B0
S315000039BCA06801F066FF0F35A3685B5D4246CDE952
S315000039CC000339464B46304614F020F940BBE37BE6
S315000039DC002BC6D18120C5E7057D8289EB1C9A4256
S315000039EC1CD3AAB28068961C511CD31C0344825D5E
S315000039FC415C405D14F010F9E8E7057D8289EB1C0B
S31500003A0C9A420BD3AAB28068961C511CD31C034451
S31500003A1C825D415C405D14F01DF9D7E78020A1E77B
S31500003A2C00209FE7C37B10B5044693B10369144A83
S31500003A3C23F47F0393420ED1017D82898B1C9A421B
S31500003A4C19D3806801F01DFFFCF794FFA8B9E37B3E
S31500003A5C23B9812003E00B4A934201D0832010BD89
S31500003A6C037D818903F10802914204D380681844CE
S31500003A7CFCF76EFFEAE78020F1E70020EFE700BFD6
S31500003A8CA2100006A210001038B5C37B002B437D94
S31500003A9C14BF8325C325012B04463ED10368028A35
S31500003AAC59885879FEF712FCB8B323685B88082B43
S31500003ABC0BD00ED8042B1FD003D8032B17D02846B7
S31500003ACC38BD052B1DD0062BF9D1E37BF3B183252D
S31500003ADCF5E7B3F5806FF8D002D8B3F5407FF3E77E
S31500003AECB3F5805F14D04FF610429342ECE72046B4
S31500003AFCBDE83840FFF740BD2046BDE83840FFF72B
S31500003B0C79BD2046BDE83840FFF7DFBD8125D6E7F5
S31500003B1C2046BDE83840FFF71FBF637D002BCED192
S31500003B2C2368228A59885879FEF7C7FB0028C6D025
S31500003B3C23685B88032B12D006D8002BBFD12046F6
S31500003B4CBDE83840FFF706BD192BBED04FF6104224
S31500003B5C9342B4D12046BDE83840FFF763BF2046F8
S31500003B6CBDE83840FFF724BD70470120704701209F
S31500003B7C7047012070477047B520704770477047F3
S31500003B8C00207047002070470020704700207047C7
S31500003B9C00207047002070470020704700207047B7
S31500003BAC01207047012070470020704700207047A5
S31500003BBC0020704700207047002070477047842013
S31500003BCC70477047704770477047012070477047C1
S31500003BDC7047704701207047002070477047704748
S31500003BEC002070476FF02F007047002070470000D0
S31500003BFC034B1B681878012808BF0220704700BFCA
S31500003C0C5C2400207047032070477047704770474C
S31500003C1C704770470020704700207047002070479F
S31500003C2C0020704700207047002070470020704726
S31500003C3C002070477047B520704700207047002061
S31500003C4C70477047704770470020704770470122D5
S31500003C5C0521104605F078B904220521012005F04E
S31500003C6C73B903220521012005F06EB90222052144
S31500003C7C012005F069B905221146012005F064B949
S31500003C8C06220521012005F05FB9412205210120FC
S31500003C9C05F05AB940220521012005F055B94222FA
S31500003CAC0521012005F050B900220521012005F05F
S31500003CBC4BB902220621012005F046B94222062103
S31500003CCC012005F041B941220621012005F03CB93D
S31500003CDC01220621104605F037B9402206210120A3
S31500003CEC05F032B900220621012005F02DB9032278
S31500003CFC0821012005F028B902220821012005F02F
S31500003D0C23B907220821012005F01EB90622082135
S31500003D1C012005F019B904220821012005F014B977
S31500003D2C05220821012005F00FB9002208210120E7
S31500003D3C05F00AB901220821104605F005B9402202
S31500003D4C0321012005F000B901220321104605F0DC
S31500003D5CFBB800220321012005F0F6B8022203214C
S31500003D6C012005F0F1B801220421104605F0ECB84B
S31500003D7C04221146012005F0E7B803220421012094
S31500003D8C05F0E2B805220421012005F0DDB8002279
S31500003D9C0421012005F0D8B847224FF440710120C8
S31500003DAC05F0D2B805224FF44071012005F0CCB8CD
S31500003DBC02224FF44071012005F0C6B84C224FF494
S31500003DCC4071012005F0C0B809224FF44071012062
S31500003DDC05F0BAB803224FF44071012005F0B4B8CF
S31500003DEC06224FF44071012005F0AEB800224FF4C4
S31500003DFC4071012005F0A8B80A224FF44071012049
S31500003E0C05F0A2B807224FF44071012005F09CB8CA
S31500003E1C04224FF44071012005F096B801224FF4AC
S31500003E2C4071104605F090B84B224FF440710120BA
S31500003E3C05F08AB808224FF44071012005F084B8C9
S31500003E4C44224FF44071012005F07EB842224FF413
S31500003E5C4071012005F078B843224FF440710120DF
S31500003E6C05F072B840224FF44071012005F06CB891
S31500003E7C41224FF44071012005F066B80122002161
S31500003E8C092005F061B8000002292DE9F84F054616
S31500003E9C8A4602D963B1042908D85B49022003F08B
S31500003EACF1F84FF0000B5846BDE8F88F42F00402CB
S31500003EBC0C9C2A70002B3ED06B701B0AAB70032730
S31500003ECC04F002FC07F1020BE85501379DF8283087
S31500003EDCEB554FF000095FFA89F30B9AD65C002E6E
S31500003EECE1D0732E50D8A6F14C01C9B2162904F1B3
S31500003EFC0408276829D8454B23FA01F1C94311F068
S31500003F0C01012CD160684C2E04F1080884B214D13E
S31500003F1C4FF6FF7120468C4214BF022100210BEB99
S31500003F2C04020A4492455EDA621839493346022085
S31500003F3C03F0A8F8B5E70127C2E7532E0DD1C0B29E
S31500003F4CB0F1FF0118BF0121E9E76C2E07D1384605
S31500003F5C01F0C1FC023084B200210846DFE7732E63
S31500003F6C04D1384601F0B2FC0130F4E7A6F1300476
S31500003F7CE2B2092A01D8A4B2EEE7A6F14102062A5A
S31500003F8C0AD8A6F13704F6E7752E0BD0762E10D08C
S31500003F9C782E10D0772E10D032461E49022003F010
S31500003FAC71F87EE7012104F10408206800242746F5
S31500003FBCB5E70221F7E70321F5E70421F3E70CF156
S31500003FCC010E013A05F80C00D2B2000A1FFA8EFC5B
S31500003FDC002AF4D18B441FFA8BFB84B137B93346D4
S31500003FEC22460D49A3E7DC460A46F1E705EB0B0032
S31500003FFC2246394601F03AFBA3441FFA8BFB09F122
S3150000400C0109444667E700BF53AD03008100400039
S3150000401C91AD030078AD0300C4AD030010B5044C9C
S3150000402C20600448018004490A60044A136010BDEC
S3150000403CCC230020D0230020C8230020C42300203A
S3150000404C70B586B00AAC0D4654F8046B0B49059452
S3150000405C09880093CDE901641346024608480068B6
S3150000406CFFF712FF074B1B681880074B1B684FF4B2
S3150000407C82525D80DA8006B070BD00BFD02300206E
S3150000408CCC230020C8230020C423002008B430B55C
S3150000409C86B009AB0C4653F8045B0D4905930988A9
S315000040AC0092CDE9015302460A4800230068FFF747
S315000040BCEBFE094B1B681880084B1B684FF48252A9
S315000040CC5C80DA8006B0BDE8304001B0704700BFB6
S315000040DCD0230020CC230020C8230020C42300209A
S315000040EC07B5064B1B681A880091054B05491B68DA
S315000040FC0968FCF759FE03B05DF804FBC8230020E1
S3150000410CCC230020C42300200021FFF7E9BF0000C8
S3150000411C07B5074B1B681B880192064A126800926A
S3150000412C054A1268FCF7ADFE03B05DF804FB00BF50
S3150000413CC8230020CC230020C42300200022FFF734
S3150000414CE7BF000007B5064B1B681A880091054BA4
S3150000415C05491B680968FCF77BFE03B05DF804FB98
S3150000416CC8230020CC230020C42300200021FFF705
S3150000417CE9BF00001FB5094C24680394084C246859
S3150000418C24880294BDF818400194064C246864886F
S3150000419C0094FCF7A2FE04B010BD00BFCC23002097
S315000041ACC8230020C4230020024B1B6818715971C8
S315000041BC704700BFC4230020F8B50D468C680A680A
S315000041CC26490646202009F02EFA6B687BB924494D
S315000041DC202009F028FA202011F03CFF214920204C
S315000041EC09F036FA2020BDE8F84011F033BF002E56
S315000041FCF1D01D4D1D4E1E4F013C14F8013F23B945
S3150000420C1849202009F024FAE5E7752B16D0762BF1
S3150000421C16D0772B16D0732B16D0722B16D0712B7B
S3150000422C16D0622B16D06E2B16D01249124A2A2B98
S3150000423C18BF1146202009F0F6F9DEE72946F9E702
S3150000424C3146F7E73946F5E70C49F3E70C49F1E750
S3150000425C0C49EFE70C49EDE70C49EBE7B7E903002E
S3150000426C86AE030037AE030044AE030038AE03003F
S3150000427C4FAE03008DAE03008AAE03005BAE0300A7
S3150000428C65AE030070AE03007BAE030085AE030083
S3150000429CF0B5214A92F87B30184452FA80F01F4B45
S315000042AC90F865C090F866501F78A5EB0C050026B3
S315000042BCEDB23046F4B2A54225D90CEB06031344F5
S315000042CC5B7811B10CB92D2B17D0782B1FD0582B2E
S315000042DC05D108B137240AE0013C012C14D9602B16
S315000042EC17D8402BF6D83A2B34BF302400241B1B8E
S315000042FCDBB29F4203D900FB07300136DAE7052310
S3150000430C82F879300020F0BD10270020F5E7002850
S3150000431CE2D05724EBE700BFD22300206C1B002011
S3150000432C014B1B6818687047484F0020094A002348
S3150000433CFF21137082F8783082F8653082F8773076
S3150000434C82F8793082F87A1082F87B30024A136050
S3150000435C704700BFD2230020484F0020034B93F830
S3150000436C770093F87B30C01AC0B27047D223002076
S3150000437C0021FFF78DBF000010B50A4B93F87B2088
S3150000438C024453FA82F292F8652013445C78A4F145
S3150000439C2D0359425941FFF77BFF2D2C08BF404294
S315000043AC10BD00BFD223002030B50C4A92F87B30EA
S315000043BC0344C043DBB2C00F39B1D51895F866403B
S315000043CC95F86550641B241A0C7042FA83F393F823
S315000043DC65301844024B184430BD00BFD223002070
S315000043ECD3230020F7B50E460DF1070115461C46E2
S315000043FCFFF7DAFF9DF80730AB42074688BF8DF80A
S3150000440C07501CB19DF807402C1BE4B222463046DF
S3150000441C002101F087F930199DF80720394601F083
S3150000442C25F99DF8070003B0F0BD38B508220C46F7
S3150000443C0123FFF7D7FF04F10803621E043413F8B7
S3150000444C011D12F8015F1D70A3421170F7D138BD22
S3150000445C38B5014605460120FFF7AEFED5E9014306
S3150000446C6CB91C46084D236863B12946202009F017
S3150000447CDAF821460020FFF79FFE0C34F3E71B7891
S3150000448C6E2BEFD038BD00BF0ABF030008B5044938
S3150000449C202009F0C8F82020BDE8084011F0DABD4C
S315000044ACF8AD030038B5FFF7F1FF064D002461198E
S315000044BC0C34631953F80C3C03B938BD0020FFF7D4
S315000044CC7BFEF4E7E49203002DE9F84F1F4B204DD9
S315000044DC53F820201F49202009F0A5F82B681BB99A
S315000044ECBDE8F84FFFF7DEBF1B4FDFF874A0FFF7F0
S315000044FCCDFF0026B94697F87B30F4B2013B9C42BF
S3150000450C04DB2868BDE8F84FFFF7A2BF47FA86F32D
S3150000451C4C4493F865800023C84494F8662094F8BC
S3150000452C6510521A03F1010BD2B2DBB2934205D3DA
S3150000453C0A49202009F077F80136DCE74344514656
S3150000454C5A78202009F06FF85B46E6E7701B0020CE
S3150000455C484F0020F3AD0300D22300200BBF03000D
S3150000456CEEB803002DE9F74F824C94F87730002B08
S3150000457C00F0A380804B1B7813F0010F04F10107A8
S3150000458C1FD000257D4E14E06319202093F8662079
S3150000459C93F86530D21A44FA85F3D2B293F86510C3
S315000045AC394411F052FD3146202009F03CF8013512
S315000045BCEDB294F87730AB42E6D87149202009F079
S315000045CC32F894F877300193DFF8C0E16D4B002692
S315000045DC71461EF8012B91F801C04FF00008ACEBA8
S315000045EC020C07EB020A5FFA8CFC45461868002899
S315000045FC53D00138D14619E02AB9002D4BD04FF0D3
S3150000460C01080C33F2E719F8011BA1F1410BBBF1C0
S3150000461C190F98BF2031A2F1410B98BFC9B2BBF15B
S3150000462C190F9CBF2032D2B28A42EAD1A9EB0A01F9
S3150000463C614510F8012FDFD1002ADED11D46524B01
S3150000464C1D6094F87B30013384F87B30D5E9012367
S3150000465C0136F6B2002A36D01B786E2B32D03F2BA1
S3150000466C24D04FF000094F464FF0070A4FF0040BC9
S3150000467C5FFA89F0811994F877C0AA68C9B28C459B
S3150000468CD35D28D893B117447B782A2B1CBF032300
S3150000469C84F879300AE01D46B3E7B8F1000F01D172
S315000046AC002DCCD1022384F87930002594F87900BA
S315000046BC00285CD1686800F02FF903B0BDE8F04F14
S315000046CCFFF734BE1346019AB24281D8032284F80E
S315000046DC79201D46EAE7732B08D8712B0AD2002BDA
S315000046EC43D0622B30D084F879A016E0A3F1750282
S315000046FC022AF8D8752B1ED0762B1FD0732B20D000
S3150000470C722B47F6FF7818BF4FF0FF380121FFF7E1
S3150000471CBFFD404501D984F879B0AB683B4409F13B
S3150000472C01095B782A2B94F879301CBF0137FFB24C
S3150000473C002B9DD0BAE74FF0FF08E7E74FF6FF785E
S3150000474CE4E74FF07F08E1E794F87B30184454FA1D
S3150000475C80F090F8653023445B78222BDDD07B2BE0
S3150000476CDBD0052384F87930D7E70323FAE7FFF784
S3150000477CABFEA2E7D22300204E2400200BBF030081
S3150000478C35AE0300E4920300484F00203724002086
S3150000479C2DE9F3415E4C5F4F06460D464FF000087F
S315000047AC66B90DF10701284611F048FC78B12628A8
S315000047BC00F0A980012384F879304BE0002D00F03D
S315000047CCA28016F8013B8DF80730013DEDB23A7820
S315000047DC9DF807303B700D2A01D10A2BE0D00D2B2A
S315000047EC0CD0A3F10A025142514122788846042A80
S315000047FCD6D8DFE802F0051D263C31000121F4E78E
S3150000480C21B1FFF7AFFE4FF00108C9E7202B63D0AB
S3150000481C222B07D10223237094F87820642A5DD1C9
S3150000482C0623C8E77B2B01D10323F4E70123F2E728
S3150000483C09B9202BF0D194F87730112B3FD10323F3
S3150000484CB9E7222BF7D00029E6D0052384F8793076
S3150000485C4FF0010804232370B8F1000FA0D094F890
S3150000486C790008B1FFF730FEFFF760FD98E77D2B66
S3150000487C94F87A0003D1FF28DDD005239BE7602B43
S3150000488C13D8402B13D8392B8CBF002230229A1AFE
S3150000489CD2B20F2A10D8FF280BD002EB0012FF233E
S315000048AC8DF8072084F87A30B6E75722EFE73722DF
S315000048BCEDE784F87A2073E7202BDED170E701331D
S315000048CCDBB284F87730234494F8782083F865209B
S315000048DC00232370002994D1884661E72378012BA5
S315000048EC09D19DF80730A3F1410119299CBF20334A
S315000048FCDBB28DF80730A3189DF8071059700132FA
S3150000490C84F878204CE7404602B0BDE8F08100BF41
S3150000491CD22300204F24002010B5054B04461878EE
S3150000492C00F0EEFFA047BDE8104000F0F0BF00BF5E
S3150000493C6A2800207FB501A8FCF702FE01AA0349EC
S3150000494C042002F09FFB07B05DF804FB65B1030081
S3150000495C2DE9F04F18228DB0FF230DEB020000213C
S3150000496C8DF80A3030F009FF0DF10B014FF0FF30D6
S3150000497CFFF71AFDFFF7DEFF41F202029D49042004
S3150000498C02F080FB04A8FDF7EDF806A90DF10A006C
S3150000499CFDF7EEF80420984902F090FB042002F093
S315000049AC5DFB10B104A802F0D5FA9DF922309DF8F2
S315000049BC23209249042002F065FB23F043F8831E62
S315000049CCDBB2FC2B05462AD88D498E4E8E4FDFF86E
S315000049DCA482042002F056FB012422463146042010
S315000049EC02F06CFB03A9E0B222F0D6FF9128024636
S315000049FC00F09580932800F09280002840F0948077
S31500004A0C9DF90C1000919DF80E309DF80D207F49F4
S31500004A1C042002F037FB0134E3B2AB42DDD3BDF820
S31500004A2C2040FCF7B1FE224603467949042002F0E9
S31500004A3C45FB0420774902F041FB042002F00EFBF3
S31500004A4C10B106A802F086FA7349042002F01AFB8C
S31500004A5C28F0D2F9044628F0C9F9224603466F49D4
S31500004A6C042002F00FFBFDF7A3F86D49042002F0B9
S31500004A7C25FB9DF80A20FF2A5BD06A49042002F028
S31500004A8C1DFB6549DFF8F081042002F0FBFAFDF707
S31500004A9C7BF8654A65490346042002F0F3FA22F0D6
S31500004AAC43FF63490246042002F008FBFDF778F841
S31500004ABC0446FDF77BF8224603465E49042002F0C5
S31500004ACCE1FAFDF70DFA5C490246042002F0DAFA27
S31500004ADC0025FDF705FAECB2A0422FD80122574962
S31500004AEC574C042002F0CEFA002000F009FF554B7B
S31500004AFC55490022042002F0C5FA236853B11A78EE
S31500004B0C5249042002F0BEFA236851495A7804200F
S31500004B1C02F0B8FA00F0FBFE0DB0BDE8F08F394696
S31500004B2C042002F0AFFA76E74146042002F0AAFA16
S31500004B3C71E74849042002F0C1FAA2E7464B474FF9
S31500004B4C03EB04162046D6F80890FDF73BFC82468C
S31500004B5C2046FDF7CBF9002814BFC346BB462046BA
S31500004B6CFDF730FC03F0C6FC002814BF404638465F
S31500004B7C5B46009052463A49DFF800B1042002F039
S31500004B8C9DFAB1797388327B0191B188009104202A
S31500004B9C344902F077FA002699F80430F4B2A342AD
S31500004BAC01D8013595E7D9F800702F482F49142301
S31500004BBC5C4307EB040A3B5B9AF90C2011EA2201D1
S31500004BCC38BF01460A460420594602F077FA0420FB
S31500004BDC02F044FA38B150463C5BFDF7A5F90146A4
S31500004BEC204603F0FBFC2249042002F04BFA013666
S31500004BFCD2E700BF28AF030043AF03006FAF03003B
S31500004C0C4AAF030060AF030084AF030067AF030035
S31500004C1C8FAF0300ADAF0300DD8A0300B6AF030010
S31500004C2CD7AF0300BFEC030043EE0300EAAF03006B
S31500004C3CF8AF03000CB003001BB003008FB00300E9
S31500004C4C5C2400209BB00300A9B00300B5B00300A0
S31500004C5CC7B00300E2AF0300044F002007AF030008
S31500004C6C26B0030046B003001CAF030010AF0300D0
S31500004C7C37AE030094F60300FFAE030078B00300D2
S31500004C8C08B50020FFF774FBBDE8084080B202F0BF
S31500004C9C63BA08B50020FFF76BFBBDE8084080B28D
S31500004CAC02F06EBA70B5074D074E00240C3463192A
S31500004CBC53F80C2C02B970BD3146042002F0E2F90F
S31500004CCCF4E700BFE4920300B7E9030008F060B90B
S31500004CDC08B50020FFF74CFB054B1A7810F0FF0FB8
S31500004CEC14BF42F0010222F001021A7008BD00BF87
S31500004CFC4E2400202DE9F8431BF0E8FE104EDFF899
S31500004D0C4C80DFF84C9007460025EBB256F8334042
S31500004D1C0CB9BDE8F88358F823204946012002F067
S31500004D2CCDF923782BB90749012002F0ABF90135EF
S31500004D3CEBE762680449D21B012002F0A3F9F6E7FF
S31500004D4C5485030056B103005FB10300D01A00204E
S31500004D5C4FB1030010B52BF0ABFF0D4904460120F3
S31500004D6C02F0ACF9022C0DD0032C0DD0012C0DD178
S31500004D7C0849012002F0A2F907490120BDE81040BC
S31500004D8C02F080B90549F4E70549F2E70549F0E771
S31500004D9CE0B00300FDB0030049EB030003B10300D0
S31500004DAC12B1030022B103002DE9F843114EDFF8CE
S31500004DBC54800025FDF794F8ECB2A04201D8BDE86A
S31500004DCCF8832701204616F80790FDF78FF80A4B53
S31500004DDC0A49002818BF43464A46012002F06EF9DC
S31500004DECF05DFCF742FF0649012002F04BF9013554
S31500004DFCE0E700BF044F0020D4B4030044B1030025
S31500004E0C37AE0300CAB4030008B50020FFF7B0FAAA
S31500004E1C094B1B681B681978A1F165035942594166
S31500004E2CC0B2FDF7A9FC28B904490120BDE8084029
S31500004E3C02F028B908BD00BF484F00202AB1030074
S31500004E4C49BA89B24840C0F303114140080380B205
S31500004E5C4840C3B280EA431070470000014B1878F3
S31500004E6C704700BF50240020014B1870704700BFDC
S31500004E7C502400201EF090BF38B5A0F14303054620
S31500004E8C0A2B31D8DFE803F0060A0A12123030304A
S31500004E9C30301100BDE838401BF004BA1BF0CEF9D7
S31500004EAC20B11BF0FFF90028FBD138BD114C20783E
S31500004EBC0028FAD10123443D237011F043FD032D44
S31500004ECC0DD8DFE805F00606090240F601001BF0D6
S31500004EDCCDFD00232370E8E740F60200F7E77A21C0
S31500004EEC054807F053F9F4E78C210348BDE8384030
S31500004EFC07F04CB95124002074B103007047704779
S31500004F0C70477047704770477047704770477047D7
S31500004F1C70470020704770477047002070477047F5
S31500004F2C002070477047012070470120704770477A
S31500004F3C704770477047704770470000014B01225D
S31500004F4C1A707047984B0020014B00221A7070475C
S31500004F5C984B0020014B1878704700BF984B0020E7
S31500004F6C84B004AB03E9070004B070472DE9F04F99
S31500004F7C24220C4689B00021054630F0FEFB204663
S31500004F8CFEF7D0FA0446002800F0E0807549FEF7DB
S31500004F9CDEFA002800F0A48072492046FEF7D7FA04
S31500004FACD0E9080130F0B0F9C3B200936E4920463F
S31500004FBCFEF7CDFA002800F095806B492046FEF7E7
S31500004FCCC6FAD0E9080130F09FF9C3B201936749DC
S31500004FDC2046FEF7BCFA30B164492046FEF7B7FA14
S31500004FEC006930F0C5FC029061492046FEF7AFFA25
S31500004FFC30B15F492046FEF7AAFA006930F0B8FCDA
S3150000500C07465C492046FEF7A2FA30B159492046BC
S3150000501CFEF79DFA006930F0ABFC06465649204671
S3150000502CFEF795FA30B154492046FEF790FA00691E
S3150000503C30F09EFC039051492046FEF788FA002872
S3150000504C52D04E492046FEF782FAD0E9080130F0DC
S3150000505C5BF95FFA80F84A492046FEF778FA30B1D8
S3150000506C47492046FEF773FA006930F081FC454942
S3150000507C04902046FEF768FA0590FEF757FA5FFA99
S3150000508C80FA52464049012001F0FCFF0598FEF7D4
S3150000509C4DFA1823584330F043FB00230246814651
S315000050AC534509F1180921D120460592FEF730F82F
S315000050BC9DF800302B709DF804306B70029B059A9E
S315000050CCEE60C5E90137039B2B61049B85F81480C0
S315000050DC2846AB6185F81CA02A6209B0BDE8F08FA2
S315000050EC009063E7019072E78046B4E7194605988D
S315000050FC07920693FEF722FA24498346FEF724FA12
S3150000510C006930F035FC224949F8100C5846FEF778
S3150000511C1BFAD0E9080130F0F7F81E4909F80C0C17
S3150000512C5846FEF711FA006930F022FC1A4949F884
S3150000513C080C5846FEF708FAD0E9080130F01CF9BD
S3150000514C069B079A49E906010133A9E702468246FE
S3150000515C04908046039006460746CDE90100009070
S3150000516CA2E700BF29C603002FA603003FB3030026
S3150000517C42B3030046B3030049B303004DB3030027
S3150000518CF5A8030050B3030054B3030076A503003F
S3150000519CECAA03004BB3030047A50300F7B505467D
S315000051AC10220846002131F0D1FA070EC0F307464B
S315000051BC84B2009433463A460449012001F062FF5A
S315000051CC28462F806E806C6003B0F0BDEBB20300F6
S315000051DC2DE9304C9DB06B4683E80300BDF800000A
S315000051EC0199030A0206BDF802004FEA004B4FEA8A
S315000051FC104C1BEB02044CEB030514EB010A45F1B6
S3150000520C000B52465B460F49012001F03BFF52460C
S3150000521C0D495B4603A830F079FB002303A88DF8F3
S3150000522C143030F0C0FB30F07BFA03A9044630F0A2
S3150000523C97FB03AA0549012001F024FF20461DB067
S3150000524CBDE8308C77D60300FCB1030001B2030035
S3150000525CF7B505460C460A4601200F4901F012FF28
S3150000526C002300220D49012001F00CFF10222046DC
S3150000527C002131F035FB8FB2060C84B20094334614
S3150000528C3A460749012001F0FDFE2846C5E900769D
S3150000529CAC6003B0F0BD00BF68B303007DB3030080
S315000052AC88B303002DE9F0499FB001AB83E80700F2
S315000052BCDDF80880039C184F201C4FF000054FEAC0
S315000052CC084B4FEA184C45F582711BEB00024CEB70
S315000052DC01030120114901F0D5FE002639464FF491
S315000052EC8272002305A830F011FB4246334639463C
S315000052FC06A830F00BFB22462B46394607A830F0A1
S3150000530C05FB0D208DF8206030F00AFA05A930F067
S3150000531C27FB1FB0BDE8F0897DB2030067B203001E
S3150000532CF7B500240F4E8DF8064005460F4615F8C6
S3150000533C14308DF8043005EB440310225B788DF89D
S3150000534C0530002101A831F001FA22463855C3B2C6
S3150000535C31460120013401F095FE082CE7D103B04B
S3150000536CF0BD00BF1CB30300F0B50C4F9BB0451E3F
S3150000537C002401AE301915F8012F3946023430F0ED
S3150000538CC5FA102CF6D101A830F00DFB30F0C8F997
S3150000539C01A930F0E5FA1BB0F0BD00BF4BBF03000E
S315000053ACF7B500240F4E8DF8064005460F4615F846
S315000053BC14308DF8043005EB440310225B788DF81D
S315000053CC0530002101A831F0C1F922463855C3B287
S315000053DC31460120013401F055FE122CE7D103B001
S315000053ECF0BD00BF2CB30300FFF7BEBF2DE9F043A1
S315000053FC04469BB00F46002937D00A4601201C49AB
S3150000540CDFF87C9001F03EFE4FF000084646791E10
S3150000541CB14201ABA2680CBF1649494603EB080022
S3150000542C236930F073FAA06830F0BDFA054620699E
S3150000543C30F0B9FA103501364544B74205EB000891
S3150000544C04F11804E3DC01A830F0ADFA30F068F989
S3150000545C01A9044630F084FA22460749012001F0DE
S3150000546C11FE20461BB0BDE8F083044CF9E700BFE3
S3150000547C1AB2030025B203004EB2030037AE030086
S3150000548C39B2030084B010B59CB01EAC84E80F0092
S3150000549C0F49019122999DF879309DF87820009159
S315000054AC03A80C4930F032FA03A830F07CFA30F03D
S315000054BC37F903A9044630F053FA2246064901206F
S315000054CC01F0E0FD20461CB0BDE8104004B070476A
S315000054DC35B403000DB40300F7B3030084B010B564
S315000054EC9CB01EAC84E80F000F49019122999DF8DF
S315000054FC79309DF87820009103A80C4930F006FA13
S3150000550C03A830F050FA30F00BF903A9044630F03A
S3150000551C27FA22460649012001F0B4FD20461CB0AC
S3150000552CBDE8104004B07047E9B103000DB40300A8
S3150000553CF7B3030084B010B5ADF5067D88AC84E8EE
S3150000554C0F009DF83C129098FFF750FF184904463F
S3150000555C0246012001F096FD8E9906919DF83412B3
S3150000556C9DF821329DF82022CDE904418C990391B6
S3150000557C8B9902918A9901918999009109A80D49F3
S3150000558C30F0C4F909A830F00EFA30F0C9F809A9C0
S3150000559C044630F0E5F922460749012001F072FD78
S315000055AC20460DF5067DBDE8104004B0704700BFDF
S315000055BC83B2030091B20300F7B303002DE9F04761
S315000055CC204DDFF8A090DFF8A0A000245FFA84F845
S315000055DC404622F043FAFF2806460CD122461A49C9
S315000055EC287808F035F82878013410F033FD142C9F
S315000055FCECD1BDE8F087154B59F82420144947B275
S3150000560C13EA270338BF5346287808F021F8002FF1
S3150000561CE9DA14B1B8F1030F08D10E4B0E4928780C
S3150000562C16F0010F18BF194608F012F80A2CDAD139
S3150000563C0A4B0B49287816F0010F18BF194608F0CB
S3150000564C07F8D0E75D1B0020DDB4030037AE03007E
